:0400000007EF00F016
:0A0008005D8284ED12F0A4EF12F007
:100800000010191D1F1D191000506F6E67612075B3
:100810006E20656E7661736520004C6C656E616E4E
:10082000646F20202020206D6C2000526574697256
:100830006520656C20656E766173650043616E743A
:10084000696461643A20303030306D6C00417472FC
:1008500061732A20200053616C69722000496E691F
:1008600063696F005061726172002575000013505A
:10087000800B1C6E13501324226E12AE42EF04F054
:1008800044EF04F045EF04F022802250D8B44BEF3F
:1008900004F04DEF04F060EF04F02228D8A453EFE9
:1008A00004F055EF04F05DEF04F0000E106E000E42
:1008B000116E000E126E000E136E128E68EF04F0B1
:1008C000000E106E000E116E000E126E000E136EF2
:1008D0001750800B1C1A17501724216E16AE73EF99
:1008E00004F075EF04F076EF04F021802150D8B4C5
:1008F0007CEF04F07EEF04F091EF04F02128D8A4FF
:1009000084EF04F086EF04F08EEF04F0000E146E16
:10091000000E156E000E166E000E176E168E99EFF5
:1009200004F0000E146E000E156E000E166E000E12
:10093000176E2150D8B49FEF04F0A1EF04F0A9EF97
:1009400004F02250D8A4A7EF04F0A9EF04F0B3EF0D
:1009500004F0000E106E000E116E000E126E000EEE
:10096000136E4BEF06F016501002F3CF27F0F4CFC2
:1009700028F027501D6E1E6A1F6A206A2850236EB9
:10098000246A256A266A15501102F3CF27F0F4CFA6
:1009900028F027501D26000E1E221F22202228503C
:1009A0002326000E24222522262214501202F3CFE1
:1009B00027F0F4CF28F027501D26000E1E221F22FC
:1009C000202228502326000E2422252226221FC062
:1009D00020F01EC01FF01DC01EF01D6A1450110231
:1009E000F3CF27F0F4CF28F027501D2628501E22E1
:1009F000000E1F22000E202215501002F3CF27F008
:100A0000F4CF28F027501D2628501E22000E1F224A
:100A1000000E20221FC020F01EC01FF01DC01EF0BF
:100A20001D6A14501002F3CF27F0F4CF28F027509E
:100A30001D2628501E22000E1F22000E20221650B6
:100A40001102F3CF27F0F4CF28F0275023262850A7
:100A50002422000E2522000E262215501202F3CF6A
:100A600027F0F4CF28F02750232628502422000E08
:100A70002522000E262216501202F3CF27F0F4CFC3
:100A800028F02750186E2850196E1A6A1B6A1AC06F
:100A90001BF019C01AF018C019F0186A1850232654
:100AA000195024221A5025221B5026221DC018F04E
:100AB0001EC019F01FC01AF020C01BF0190E66EFFF
:100AC00005F0D8901B321A3219321832E82E61EF35
:100AD00005F018502326195024221A5025221B50A5
:100AE00026221FC020F01EC01FF01DC01EF01D6A70
:100AF000215022C018F0196A1826000E1922820E01
:100B00001824276EFF0E1920286E9CEF05F0D89050
:100B1000233624362536263620AE91EF05F093EFA6
:100B200005F094EF05F02380D8901D361E361F3651
:100B300020362706D8A0280625AEA1EF05F0A3EFA2
:100B400005F087EF05F0000E216E20AEAAEF05F04C
:100B5000ACEF05F0D0EF05F0FF0E1D14186EFF0E80
:100B60001E14196EFF0E1F141A6E7F0E20141B6EBA
:100B7000185019101A101B10D8B4C1EF05F0C3EFAC
:100B800005F0C7EF05F0010E216ED0EF05F023A0B0
:100B9000CCEF05F0CEEF05F0D0EF05F0C3EF05F098
:100BA0002150D8B4D6EF05F0D8EF05F0FCEF05F0F2
:100BB000010E2326000E24222522262226A0E3EF62
:100BC00005F0E5EF05F0FCEF05F023C018F024C0B8
:100BD00019F025C01AF026C01BF01B341B321A3244
:100BE0001932183218C023F019C024F01AC025F0A9
:100BF0001BC026F0274A282A28BE07EF06F02850F7
:100C000008E12728D8A007EF06F009EF06F013EF58
:100C100006F0000E236E000E246E800E256E7F0EF1
:100C2000266E41EF06F028BE20EF06F0285006E1C0
:100C30002704D8B01EEF06F020EF06F02CEF06F0E8
:100C4000000E236E000E246E000E256E000E266E22
:100C5000000E1C6E41EF06F027C022F0FF0E231697
:100C6000FF0E24167F0E2516000E261622A03BEF3F
:100C700006F03DEF06F03EEF06F0258ED8902230CC
:100C8000266E1C50261223C010F024C011F025C07F
:100C900012F026C013F01200839E838C838A83880F
:100CA00083B655EF06F057EF06F070EF06F0200E12
:100CB000026E2A0EE82EFED7022EFCD783A663EF23
:100CC00006F065EF06F05EEF06F04E0E026EEB0EDC
:100CD000E82EFED7022EFCD700F0310EDDEF07F034
:100CE00083B475EF06F077EF06F090EF06F0200E74
:100CF000026E2A0EE82EFED7022EFCD783A483EFC5
:100D000006F085EF06F07EEF06F04E0E026EEB0E5B
:100D1000E82EFED7022EFCD700F0320EDDEF07F0F2
:100D200083B295EF06F097EF06F0B0EF06F0200ED5
:100D3000026E2A0EE82EFED7022EFCD783A2A3EF66
:100D400006F0A5EF06F09EEF06F04E0E026EEB0EDB
:100D5000E82EFED7022EFCD700F0330EDDEF07F0B1
:100D6000838E839C838A838883B6B9EF06F0BBEFBA
:100D700006F0D4EF06F0200E026E2A0EE82EFED703
:100D8000022EFCD783A6C7EF06F0C9EF06F0C2EF2C
:100D900006F04E0E026EEB0EE82EFED7022EFCD7AA
:100DA00000F0340EDDEF07F083B4D9EF06F0DBEF8F
:100DB00006F0F4EF06F0200E026E2A0EE82EFED7A3
:100DC000022EFCD783A4E7EF06F0E9EF06F0E2EF8E
:100DD00006F04E0E026EEB0EE82EFED7022EFCD76A
:100DE00000F0350EDDEF07F083B2F9EF06F0FBEF10
:100DF00006F014EF07F0200E026E2A0EE82EFED742
:100E0000022EFCD783A207EF07F009EF07F002EFED
:100E100007F04E0E026EEB0EE82EFED7022EFCD728
:100E200000F0360EDDEF07F0838E838C839A838883
:100E300083B61DEF07F01FEF07F038EF07F0200E25
:100E4000026E2A0EE82EFED7022EFCD783A62BEFC9
:100E500007F02DEF07F026EF07F04E0E026EEB0EB7
:100E6000E82EFED7022EFCD700F0370EDDEF07F09C
:100E700083B43DEF07F03FEF07F058EF07F0200E87
:100E8000026E2A0EE82EFED7022EFCD783A44BEF6B
:100E900007F04DEF07F046EF07F04E0E026EEB0E37
:100EA000E82EFED7022EFCD700F0380EDDEF07F05B
:100EB00083B25DEF07F05FEF07F078EF07F0200EE9
:100EC000026E2A0EE82EFED7022EFCD783A26BEF0D
:100ED00007F06DEF07F066EF07F04E0E026EEB0EB7
:100EE000E82EFED7022EFCD700F0390EDDEF07F01A
:100EF000838E838C838A839883B681EF07F083EF98
:100F000007F09CEF07F0200E026E2A0EE82EFED7A7
:100F1000022EFCD783A68FEF07F091EF07F08AEF40
:100F200007F04E0E026EEB0EE82EFED7022EFCD717
:100F300000F02A0EDDEF07F083B4A1EF07F0A3EF76
:100F400007F0BCEF07F0200E026E2A0EE82EFED747
:100F5000022EFCD783A4AFEF07F0B1EF07F0AAEFA2
:100F600007F04E0E026EEB0EE82EFED7022EFCD7D7
:100F700000F0300EDDEF07F083B2C1EF07F0C3EFF2
:100F800007F0DCEF07F0200E026E2A0EE82EFED7E7
:100F9000022EFCD783A2CFEF07F0D1EF07F0CAEF04
:100FA00007F04E0E026EEB0EE82EFED7022EFCD797
:100FB00000F0230EDDEF07F0000E120027EC13F017
:100FC000010E056E010EECEC0FF01A0E066E080E07
:100FD000076E68EC11F0010E056E020EECEC0FF0DE
:100FE000560E066E080E076E68EC11F0070E056EC1
:100FF000020EECEC0FF0A50E0001AA6F000EAB6F15
:101000006A0EAC6F080EAD6F72C0AEF073C0AFF079
:1010100012EC12F00A0E056E010EECEC0FF0A50EAC
:10102000066E000E076E68EC11F0090E056E020EDA
:10103000ECEC0FF0220E066E080E076E68EC11F055
:101040008B80250E5A6E870E596E8C0EE82EFED7B9
:10105000592EFCD75A2EFAD78B9072C002F073C06B
:1010600003F0000E03BEFF0E046E056E010E58EC79
:101070000CF002C010F003C011F004C012F005C063
:1010800013F0A40E146E700E156EBD0E166E3E0E8D
:10109000176E37EC04F010C060F011C061F012C0A0
:1010A00062F013C063F0000E0001796F000E786FDC
:1010B000000E776F000E766F20EC13F08A86CFEF6C
:1010C00008F0AA0E146E600E156E180E166E400E05
:1010D000176E78C002F079C003F0000E03BEFF0E59
:1010E000046E056E010E58EC0CF002C010F003C047
:1010F00011F004C012F005C013F037EC04F010C07A
:1011000029F011C02AF012C02BF013C02CF06FECA4
:101110000EF029C076F02AC077F0A00E0001AA6F69
:10112000000EAB6F6A0EAC6F080EAD6F76C0AEF0FE
:1011300077C0AFF012EC12F0090E056E020EECEC67
:101140000FF0A00E066E000E076E68EC11F081A085
:10115000ACEF08F0AEEF08F0B5EF08F080AAB3EFFF
:1011600008F0B5EF08F0CFEF08F08A968B803D0EBF
:101170005A6EE10E596E400EE82EFED7592EFCD75E
:101180005A2EFAD78B908D94000E0001796F000EC5
:10119000786F000E756F000E746FF4EF08F060C08A
:1011A00010F061C011F062C012F063C013F078C09B
:1011B00002F079C003F0000E03BEFF0E046E056E50
:1011C000010E58EC0CF002C014F003C015F004C07E
:1011D00016F005C017F0F2EC0EF0D8B0F2EF08F000
:1011E000F4EF08F061EF08F078C002F079C003F086
:1011F000000E03BEFF0E046E056E010E58EC0CF0DF
:1012000002C010F003C011F004C012F005C013F0CA
:1012100060C014F061C015F062C016F063C017F032
:10122000F2EC0EF0D8A017EF09F019EF09F02DEF4E
:1012300009F08A968D94000E0001796F000E786F88
:101240008B80250E5A6E870E596E8C0EE82EFED7B7
:10125000592EFCD75A2EFAD78B901200000E00019F
:10126000736F000E726F010E056E010EECEC0FF045
:101270003C0E066E080E076E68EC11F00B0E056E44
:10128000010EECEC0FF019EC13F0000E5C6E000E8A
:101290005B6E000E00017F6F000E7E6F79EF09F02C
:1012A0004CEC06F05C6E5C50D8B459EF09F05BEF83
:1012B00009F079EF09F02A0E5C18D8B462EF09F052
:1012C00064EF09F06DEF09F0230E5C18D8A46BEF02
:1012D00009F06DEF09F06FEF09F0300E5C6E5C50B5
:1012E000C3EC12F0D00E5C2400016E6F6F6BFF0E2A
:1012F0006F235C50D8B47FEF09F081EF09F050EF15
:1013000009F0ACEF09F04CEC06F05B6E5B50D8B422
:101310008CEF09F08EEF09F0ACEF09F02A0E5B18A4
:10132000D8B495EF09F097EF09F0A0EF09F0230E7C
:101330005B18D8A49EEF09F0A0EF09F0A2EF09F026
:10134000300E5B6E5B50C3EC12F0D00E5B240001DC
:101350006C6F6D6BFF0E6D235B50D8B4B2EF09F06C
:10136000B4EF09F083EF09F0E0EF09F04CEC06F080
:1013700000017F6F7F51D8B4C0EF09F0C2EF09F0D0
:10138000E0EF09F02A0E7F19D8B4C9EF09F0CBEFCE
:1013900009F0D4EF09F0230E7F19D8A4D2EF09F099
:1013A000D4EF09F0D6EF09F0300E7F6F7F51C3EC18
:1013B00012F0D00E00017F256A6F6B6BFF0E6B235E
:1013C00000017F51D8B4E7EF09F0E9EF09F0B6EF7B
:1013D00009F017EF0AF04CEC06F000017E6F7E5129
:1013E000D8B4F5EF09F0F7EF09F017EF0AF02A0E7D
:1013F0007E19D8B4FEEF09F000EF0AF009EF0AF009
:10140000230E7E19D8A407EF0AF009EF0AF00BEFBC
:101410000AF0300E7E6F7E51C3EC12F012EC13F026
:10142000D00E00017E25686F696BFF0E69237E5127
:10143000D8B41DEF0AF01FEF0AF0EBEF09F06EC011
:1014400002F06FC003F0030E056EE80E046EDDECD3
:1014500012F002C00CF003C00DF06CC002F06DC0C1
:1014600003F0000E056E640E046EDDEC12F0025007
:101470000C240E6E03500D200F6E6AC002F06BC07C
:1014800003F0000E056E0A0E046EDDEC12F0025041
:101490000E24106E03500F20116E000168511024AD
:1014A000726F69511120736F090E056E020EECEC1C
:1014B0000FF05D0E066E080E076E68EC11F0100E50
:1014C000056E020EECEC0FF0010E056E020EECEC58
:1014D0000FF04D0E066E080E076E68EC11F00D0E43
:1014E0000D6E2D0E0C6ED80EE82EFED70C2EFCD7EE
:1014F0000D2EFAD71200F28EF294F28A92880F0E15
:10150000C112928A93809396949496949490000E2C
:101510008A6E000E8B6E000E8D6E0AEC13F022ECBC
:1015200011F027EC13F03E0ECB6E000EBE6E000ED7
:10153000BB6E94949492030ECA6E0C0EBD6E0C0E8C
:10154000BA6ECC68CA845BEF0BF0E4EC0DF02EECC5
:1015500009F0000E0001756F010E746F5BEF0BF068
:101560004CEC06F000017D6F2A0E7D19D8A4BBEF6C
:101570000AF0BDEF0AF0C1EF0AF0000E756F000E21
:10158000746F81B0C6EF0AF0C8EF0AF0DFEF0AF01F
:1015900080BACDEF0AF0CFEF0AF0DFEF0AF0000ECD
:1015A000756F020E746F2B0E0001BE6F9D0EBD6F26
:1015B000F90EE82EFED7BD2FFCD7BE2FFAD70001BB
:1015C00074057511D8B4E7EF0AF0E9EF0AF0B0EF4F
:1015D0000AF05BEF0BF0DEEC07F022EC11F051EFBC
:1015E0000BF080BAF6EF0AF0F8EF0AF010EF0BF00C
:1015F000010E056E010EECEC0FF02B0E066E080EC0
:10160000076E68EC11F0010E056E020EECEC0FF0A7
:10161000640E066E080E076E68EC11F043EF0BF0D7
:10162000010E056E010EECEC0FF0090E066E080EB1
:10163000076E68EC11F0010E056E020EECEC0FF077
:10164000640E066E080E076E68EC11F080BA2BEF80
:101650000BF02DEF0BF043EF0BF01F0E0001BE6FF0
:10166000710EBD6F1E0EE82EFED7BD2FFCD7BE2F0C
:10167000FAD700F080BA3FEF0BF041EF0BF043EFE9
:101680000BF05BEF0BF081B048EF0BF04AEF0BF083
:1016900051EF0BF0000E0001756F000E746F5BEFE1
:1016A0000BF0000174517511D8A459EF0BF05BEFEA
:1016B0000BF0F1EF0AF074C0BDF075C0BEF0000190
:1016C000BE51000AD8B467EF0BF05BEF0BF0BD51D1
:1016D000000AD8B4A5EF0AF0010AD8B4DFEF0AF087
:1016E000030AD8B4EBEF0AF05BEF0BF007EF00F062
:1016F000000167BF86EF0BF0675106E16605D8B0C1
:1017000084EF0BF086EF0BF08CEF0BF0000E326ED7
:10171000010E316E90EF0BF066C031F067C032F011
:1017200064C02FF065C030F01FC033F020C034F02B
:1017300021C035F022C036F023C037F024C038F085
:1017400025C039F026C03AF0000E3C6E1F0E3B6EED
:10175000000E9F6F22EF0CF03B06D8A03C06800ED7
:101760003B24D96E000E3C20DA6E33C002F034C048
:1017700003F035C004F036C005F037C006F038C0BD
:1017800007F039C008F03AC009F00A0E0A6E000EE0
:101790000B6E000E0C6E000E0D6E000E0E6E000E27
:1017A0000F6E000E106E000E116E55EC10F002C0A0
:1017B00027F003C028F004C029F005C02AF006C0B5
:1017C0002BF007C02CF008C02DF009C02EF02750D8
:1017D000300FDF6E3106D8A032062F06D8A03006B3
:1017E00033C002F034C003F035C004F036C005F059
:1017F00037C006F038C007F039C008F03AC009F029
:101800000A0E0A6E000E0B6E000E0C6E000E0D6EB0
:10181000000E0E6E000E0F6E000E106E000E116E9A
:1018200074EC0FF002C033F003C034F004C035F0A4
:1018300005C036F006C037F007C038F008C039F0F0
:1018400009C03AF03B503C10D8B429EF0CF02BEF14
:101850000CF047EF0CF033503410351036103710C1
:10186000381039103A10D8A438EF0CF03AEF0CF0D9
:10187000ACEF0BF032BE47EF0CF0325006E1310412
:10188000D8B045EF0CF047EF0CF0ACEF0BF01DC0FB
:1018900012F01EC013F0800E3B24146E000E3C208C
:1018A000156E2FC016F030C017F0A7EC11F0120023
:1018B0000A6E0A50D8B45FEF0CF061EF0CF083EFC2
:1018C0000CF005BE68EF0CF066EF0CF083EF0CF047
:1018D00002C006F003C007F004C008F005C009F01C
:1018E000061E071E081E091E062A000E07220822D1
:1018F000092206C00CF007C00DF008C00EF009C0A8
:101900000FF08BEF0CF002C00CF003C00DF004C020
:101910000EF005C00FF00250031004100510D8A4FB
:1019200094EF0CF096EF0CF0A0EF0CF0000E026EAE
:10193000000E036E000E046E000E056E31EF0DF00A
:10194000960E0B6EAAEF0CF00B2AD8900F320E32C7
:101950000D320C32000E0C14066E000E0D14076EC4
:10196000000E0E14086EFE0E0F14096E06500710BE
:1019700008100910D8A4BFEF0CF0C1EF0CF0A4EFD1
:101980000CF0CFEF0CF00B2A010E0C26000E0D22EE
:101990000E220F22D8900F320E320D320C32000E72
:1019A0000C14066E000E0D14076E000E0E14086E59
:1019B000FF0E0F14096E0650071008100910D8A466
:1019C000E4EF0CF0E6EF0CF0C3EF0CF0EEEF0CF0F0
:1019D0000B06D8900C360D360E360F360EBEF3EFD2
:1019E0000CF0F5EF0CF0FDEF0CF0020E0B60FBEFCE
:1019F0000CF0FDEF0CF0E8EF0CF00BB002EF0DF087
:101A000004EF0DF005EF0DF00E9ED8900B320BC0D9
:101A100006F0076A086A096A06C009F0086A076AD8
:101A2000066A06500C1207500D1208500E1209508B
:101A30000F120A50D8B41FEF0DF021EF0DF029EF6F
:101A40000DF005BE28EF0DF026EF0DF029EF0DF09B
:101A50000F8E0CC002F00DC003F00EC004F00FC0DA
:101A600005F012003FC0D9FF40C0DAFFDECFF6FF1D
:101A7000DDCFF7FF0800F550250AD8A442EF0DF09E
:101A800044EF0DF0CFEF0DF03FC0D9FF40C0DAFFBB
:101A9000DE2A000EDD22000E0001656F000E646F6D
:101AA00064C07CF0666967693FC0D9FF40C0DAFF57
:101AB000DECF4FF0DDCF50F04FC0F6FF50C0F7FF44
:101AC0000800F550750AD8A468EF0DF06AEF0DF024
:101AD000C6EF0DF041C0D9FF42C0DAFFDFCF43F0BF
:101AE000020EDE26DFCF44F0000EDD2243C0D9FF18
:101AF00044C0DAFFDECF45F0DDCF46F045C047F009
:101B000046C048F0496A4A6A4B6A4C6A4D6A4E6A56
:101B1000010E4F24436E000E5020446E3FC0D9FF8B
:101B200040C0DAFF43C0DEFF44C0DDFFB0EF0DF080
:101B30003DC01DF03EC01EF047C01FF048C020F061
:101B400049C021F04AC022F04BC023F04CC024F021
:101B50004DC025F04EC026F078EC0BF0E3EF0DF011
:101B60004FC0F6FF50C0F7FF0800F550436E446ABF
:101B70004450000AD8B4BFEF0DF0C6EF0DF043504B
:101B8000750AD8B498EF0DF0C6EF0DF03FC0D9FF3D
:101B900040C0DAFFDE2A000EDD22E3EF0DF03FC089
:101BA000D9FF40C0DAFFDECFF6FFDDCFF7FF080038
:101BB000F550026E036A3DC004F03EC005F0BDEC76
:101BC00010F0C6EF0DF0120027EC13F0040E056EB6
:101BD000010EECEC0FF0000E0D6E000E0C6E070EF9
:101BE0000B6E170E0A6E6A0EE82EFED70A2EFCD771
:101BF0000B2EFAD700D0BF0E0C24D96E000E0D208C
:101C0000DA6EDF50C3EC12F00C4A0D2A0DBE12EF53
:101C10000EF00D5009E10B0E0C5CD8A012EF0EF087
:101C200014EF0EF0EFEF0DF0060E056E020EECEC69
:101C30000FF0000E0F6E000E0E6E070E0B6E170EDD
:101C40000A6E6A0EE82EFED70A2EFCD70B2EFAD7A4
:101C500000D0CA0E0E24D96E000E0F20DA6EDF50AF
:101C6000C3EC12F00E4A0F2A0FBE40EF0EF00F50D9
:101C700009E1050E0E5CD8A040EF0EF042EF0EF029
:101C80001DEF0EF08B808D84040E0B6E0C0E0A6E11
:101C9000340EE82EFED70A2EFCD70B2EFAD78B90E7
:101CA0008D94070E0B6E170E0A6E6A0EE82EFED785
:101CB0000A2EFCD70B2EFAD700D08B808D84040E11
:101CC0000B6E0C0E0A6E340EE82EFED70A2EFCD7D1
:101CD0000B2EFAD78B908D9427EC13F012002B3437
:101CE0002C34326E3250D8A478EF0EF07AEF0EF02A
:101CF00084EF0EF0000E296E000E2A6E000E2B6E81
:101D0000000E2C6EF1EF0EF029C02DF02AC02EF03F
:101D10002BC02FF02CC030F0200E94EF0EF0D89096
:101D200030322F322E322D32E82E8FEF0EF02D5022
:101D3000316E2B8EFF0E2916FF0E2A16FF0E2B1664
:101D4000000E2C16960E325E32BEABEF0EF0A9EFEF
:101D50000EF0C1EF0EF03250800A970FD8B0B3EFFB
:101D60000EF0B5EF0EF0B7EF0EF07AEF0EF0D89060
:101D70002C322B322A322932323EB7EF0EF0D9EF15
:101D80000EF01F0E3264C7EF0EF0C9EF0EF0D1EF68
:101D90000EF07AEF0EF0D89029362A362B362C36F4
:101DA00032063250D8A4D7EF0EF0D9EF0EF0CBEFB9
:101DB0000EF03150D8B4DFEF0EF0E1EF0EF0E9EFA6
:101DC0000EF02C1E2B1E2A1E296C000E2A222B22FE
:101DD0002C2229C029F02AC02AF02BC02BF02CC0BD
:101DE0002CF01200000E1014186E000E1114196E53
:101DF000800E12141A6E7F0E13141B6E18501910D9
:101E00001A101B10D8A407EF0FF009EF0FF011EF15
:101E10000FF0000E106E000E116E000E126E000E0E
:101E2000136E000E1414186E000E1514196E800E29
:101E300016141A6E7F0E17141B6E185019101A10F4
:101E40001B10D8A426EF0FF028EF0FF030EF0FF0A3
:101E5000000E146E000E156E000E166E000E176E3C
:101E600013AE35EF0FF037EF0FF040EF0FF0106CBF
:101E7000111ED8B0112A121ED8B0122A800E135685
:101E800017AE45EF0FF047EF0FF050EF0FF0146C67
:101E9000151ED8B0152A161ED8B0162A800E175651
:101EA000000E101A000E111A000E121A800E131ACC
:101EB000000E141A000E151A000E161A800E171AAC
:101EC0001450105C155011581650125817501358D2
:101ED000D8B06DEF0FF06FEF0FF072EF0FF0D890FA
:101EE00073EF0FF0D880120020EE12F0070EDE6ABA
:101EF000E806FDE20A500B100C100D100E100F102A
:101F000010101110D8B487EF0FF089EF0FF0DBEF4E
:101F10000FF0010E1A6E97EF0FF0D8900A360B36BD
:101F20000C360D360E360F36103611361A2A11AE13
:101F30009CEF0FF09EEF0FF08DEF0FF0D890123660
:101F400013361436153616361736183619360A5023
:101F5000025C0B5003580C5004580D5005580E509D
:101F600006580F5007581050085811500958D8A05B
:101F7000BCEF0FF0BEEF0FF0CFEF0FF00A50025E94
:101F80000B50035A0C50045A0D50055A0E50065A65
:101F90000F50075A1050085A1150095A1280D89001
:101FA000113210320F320E320D320C320B320A3235
:101FB0001A2E9EEF0FF012C002F013C003F014C0EF
:101FC00004F015C005F016C006F017C007F018C0E1
:101FD00008F019C009F01200066E0604D8A4F3EF49
:101FE0000FF0F5EF0FF006EF10F005507F0F096EC0
:101FF00009380F0B076E09500F0B086E0750F0ECF5
:1020000012F00850F0EC12F054EF10F0020E061827
:10201000D8A40DEF10F00FEF10F020EF10F00550E6
:10202000BF0F096E09380F0B076E09500F0B086EB2
:102030000750F0EC12F00850F0EC12F054EF10F0F2
:10204000030E0618D8A427EF10F029EF10F03AEF8E
:1020500010F00550930F096E09380F0B076E0950E9
:102060000F0B086E0750F0EC12F00850F0EC12F075
:1020700054EF10F0040E0618D8A441EF10F043EF0F
:1020800010F054EF10F00550D30F096E09380F0B04
:10209000076E09500F0B086E0750F0EC12F0085055
:1020A000F0EC12F054EF10F012000A500B100C106C
:1020B0000D100E100F1010101110D8B462EF10F0A8
:1020C00064EF10F0ACEF10F0010E126E72EF10F032
:1020D000D8900A360B360C360D360E360F361036C3
:1020E0001136122A11AE77EF10F079EF10F068EF89
:1020F00010F00A50025C0B5003580C5004580D505D
:1021000005580E5006580F500758105008581150D7
:102110000958D8A08EEF10F090EF10F0A0EF10F05B
:102120000A50025E0B50035A0C50045A0D50055AC7
:102130000E50065A0F50075A1050085A1150095A9B
:10214000D890113210320F320E320D320C320B3267
:102150000A32122E79EF10F002C002F003C003F031
:1021600004C004F005C005F006C006F007C007F083
:1021700008C008F009C009F0120004500510D8B4D6
:10218000C4EF10F0C6EF10F0CFEF10F004500510C0
:10219000D8A4CDEF10F0CFEF10F0D4EF10F0025034
:1021A0002EEC13F021EF11F020EE09F00450D926A7
:1021B0000550DA22DE50DE10D8B4E1EF10F0E3EF84
:1021C00010F0FEEF10F020EE09F00450D926055073
:1021D000DA2210EE03F00450E1260550E222DE5030
:1021E000E65CE650800A0A6EDE50800A0A58D8B0D3
:1021F000FCEF10F0FEEF10F021EF11F020EE03F0F5
:102200000450D9260550DA22DECF06F0DDCF07F0E4
:1022100004C0D9FF05C0DAFFDECF08F0DDCF09F03A
:1022200006500824D96E07500920DA6E02C0DFFF7D
:1022300020EE03F00450D9260550DA22DE2A000EE3
:10224000DD221200929092929398939A939C939E7F
:10225000000EE4EC11F0020E066E380E056EAD0EA7
:10226000E82EFED7052EFCD7062EFAD700F0030E77
:10227000F0EC12F04E0E056EEB0EE82EFED7052E9A
:10228000FCD700F0030EF0EC12F0AC0E056E6C0EF5
:10229000E82EFED7052EFCD700D0030EF0EC12F08E
:1022A000020EF0EC12F0020EF0EC12F0080EF0EC60
:1022B00012F0000EF0EC12F00C0EF0EC12F0000E2A
:1022C000F0EC12F0060EF0EC12F027EC13F0120016
:1022D000000E0B6E000E0A6E88EF11F00A500624F5
:1022E000086E0B500720096E08C0F6FF09C0F7FF03
:1022F000F86A070EF76403D00800F55005D0F6CF52
:10230000E1FFF7CFE2FFE750C3EC12F00A4A0B2AD5
:102310000A500624086E0B500720096E08C0F6FF0D
:1023200009C0F7FFF86A070EF76403D00800F550FC
:1023300005D0F6CFE1FFF7CFE2FFE7500009D8A4C0
:10234000A4EF11F0A6EF11F06EEF11F0120017BE1E
:10235000ACEF11F0AEEF11F0B4EF11F016C01BF0BE
:1023600017C01CF0B8EF11F0000E1C6E000E1B6EB3
:10237000000E1A6E000E196ECAEF11F0000E036EF9
:10238000200E026E12C004F013C005F0BDEC10F078
:10239000194A1A2A1B50195C1A50800A186E1C50D0
:1023A000800A1858D8A0D7EF11F0D9EF11F0BEEF7E
:1023B00011F014C00BF015C00CF012C00DF013C0DA
:1023C0000EF062EC12F01200026E02A0EAEF11F0C1
:1023D000ECEF11F0EFEF11F08A88F0EF11F08A982E
:1023E00002A2F5EF11F0F7EF11F0FAEF11F08A8A7F
:1023F000FBEF11F08A9A02A400EF12F002EF12F044
:1024000005EF12F08A8C06EF12F08A9C02A60BEF01
:1024100012F00DEF12F010EF12F08A8E11EF12F0A1
:102420008A9E1200AE0E0001B06F000EB16FAAC0FE
:10243000B2F0ABC0B3F0000EB66F000EB56F000E79
:10244000BC6F000EBB6FB20E516E000E526EACC070
:1024500053F0ADC054F0B00E556E000E566E3BEC0E
:1024600012F00001B551AA25D96EB651AB21DA6E32
:10247000000EDF6E120053C057F054C058F04FEFFB
:1024800012F051C03DF052C03EF0570E3F6E000EAC
:10249000406E55C041F056C042F032EC0DF057C0CE
:1024A000F6FF58C0F7FF0800F5500009D8A45BEF0D
:1024B00012F05DEF12F041EF12F0000E526E000EBE
:1024C000516E1200000E116E000E106E73EF12F0BE
:1024D0000FC002F0036A0DC004F00EC005F0BDECA1
:1024E00010F0104A112A10500B24D96E11500C20F4
:1024F000DA6EDF500F6E0F50D8A481EF12F083EF29
:1025000012F068EF12F012000600F2A48AEF12F047
:102510008CEF12F0A2EF12F08DA491EF12F095EF74
:1025200012F0016A012A96EF12F0016A0146014693
:102530008D500118FB0B01188D6E0001784B792B23
:10254000D668F2945D921100000EF66E260EF76EBC
:10255000000EF86E00EEBFF010EE14F00900F5CF9B
:10256000EEFFE550E150FAE100EE60F04A0EEE6A4F
:10257000E806FDE15C6A5B6A5D905D92000EF86EB4
:1025800000017BEF0AF0056E05500F0B036E05503E
:10259000F00B046E898004380F0BE4EC11F0898293
:1025A000A00EE82EFED789920350E4EC11F0898248
:1025B000A00EE82EFED78992120002500402F3CF3B
:1025C00006F0F4CF07F002500502F350072603503F
:1025D0000402F350072606C002F007C003F0120001
:1025E000046E89900450E4EC11F089823F0E036E72
:1025F000550EE82EFED7032EFCD700F0899212006C
:102600004578707265732046696C6C554E4E555313
:10261000AA601840959E959C959A95989586958464
:1026200095821200000EF0EC12F00C0EF0EC12F09D
:102630001200000EF0EC12F00F0EF0EC12F012008F
:10264000D58CD58AD586D588D668D58E1200000E51
:0E265000F0EC12F0010EF0EC12F0120012008D
:020000040020DA
:08000000FFFFFFFFFFFFFFFF00
:020000040030CA
:0E000000040E181EFF8381FF0FC00FE00F409B
:00000001FF
