:0400000007EF00F016
:100008004F82CAED20F050EF20F0000E0001986FEB
:1000180072C099F073C09AF074C09BF075C09CF0E0
:100028009CBF1BEF00F019EF00F02FEF00F0010E5E
:10003800986F99C011F09AC012F09BC013F09CC041
:1000480014F078EC21F011C099F012C09AF013C0A6
:100058009BF014C09CF0000E00019E6F000E9D6F77
:10006800DCC08CF0DDC08DF09851D8B43EEF00F0C4
:1000780040EF00F054EF00F09851D8A446EF00F09C
:1000880048EF00F04EEF00F0000E7E6F2B0E7D6FF4
:1000980052EF00F0000E7E6F2D0E7D6F7DC098F040
:1000A80099C011F09AC012F09BC013F09CC014F0D4
:1000B8000FEC1CF011041210D8A465EF00F067EFE4
:1000C80000F09AEF00F000019851D8B46EEF00F0FC
:1000D80070EF00F079EF00F098C000F18C07D8A01D
:1000E8008D07000E9E6F010E9D6F000E9D25116EEF
:1000F800010E9E21126EF30E136E7F0E146E58ECD5
:1001080021F00001FD0E8C27FF0E8D2370C021F019
:1001180071C022F0000E236E010E246E8CC025F0F3
:100128008DC026F085EC1FF03AEF05F099C011F06C
:100138009AC012F09BC013F09CC014F00FEC1CF096
:1001480011501210D8A4ABEF00F0ADEF00F0CDEFD6
:1001580000F000019851D8B4B4EF00F0B6EF00F009
:10016800BFEF00F098C000F18C07D8A08D07000EF3
:100178009E6F010E9D6F000E9D25116E010E9E2132
:10018800126EF70E136E7F0E146E58EC21F085EF89
:1001980000F0000E00019F6F000EA06F800EA16F8F
:1001A8003F0EA26F000E876F000E866F99C011F088
:1001B8009AC012F09BC013F09CC014F0000E156E8C
:1001C800000E166E000E176E000E186EB1EC1EF0C3
:1001D800D8B0F1EF00F0F3EF00F0D2EF01F000EF4C
:1001E80001F088C09FF089C0A0F08AC0A1F08BC040
:1001F800A2F00001864B872B9FC011F0A0C012F01F
:10020800A1C013F0A2C014F0000E156E000E166EF9
:10021800200E176E410E186E4EEC0EF011C088F0CD
:1002280012C089F013C08AF014C08BF00001885105
:10023800995D116E89519A59126E8A519B59136EA4
:100248008B519C59146EC2EC1FF014BE37EF01F0AD
:1002580014501310121009E1020E115CD8A037EFE8
:1002680001F039EF01F0F5EF00F088C02AF089C0FD
:100278002BF08AC02CF08BC02DF099C02EF09AC0BC
:100288002FF09BC030F09CC031F08DEC1BF0D8A053
:1002980050EF01F052EF01F0F5EF00F000019F512F
:1002A800995D116EA0519A59126EA1519B59136E06
:1002B800A2519C59146EC2EC1FF014BE71EF01F0EC
:1002C80014501310121007E1020E115CD8B06FEF32
:1002D80001F071EF01F0B9EF01F09FC099F0A0C0F3
:1002E8009AF0A1C09BF0A2C09CF0D2EF01F09FC091
:1002F8001FF0A0C020F0A1C021F0A2C022F0000E83
:10030800236E000E246E200E256E410E266E63ECC1
:1003180010F01FC09FF020C0A0F021C0A1F022C0A3
:10032800A2F000018607D8A087079F51995D116E3A
:10033800A0519A59126EA1519B59136EA2519C5902
:10034800146EC2EC1FF014BEB7EF01F01450131076
:10035800121007E1020E115CD8B0B5EF01F0B7EF4B
:1003680001F0B9EF01F071EF01F099C02AF09AC0DD
:100378002BF09BC02CF09CC02DF09FC02EF0A0C08D
:100388002FF0A1C030F0A2C031F08DEC1BF0D8A046
:10039800D0EF01F0D2EF01F07BEF01F076C080F0F2
:1003A80080C081F00001DFBFDCEF01F0DEEF01F07B
:1003B800E4EF01F0DEC079F0DFC07AF0E8EF01F099
:1003C800000E7A6F060E796F79C084F07AC085F0D6
:1003D800844B852B660E8119D8A4F5EF01F0F7EF51
:1003E80001F017EF02F087BFFEEF01F0FCEF01F01C
:1003F8000AEF02F0000E9F6F000EA06F800EA16F33
:100408003F0EA26F000E876F000E866F670E801971
:10041800D8B411EF02F013EF02F017EF02F0865193
:10042800842787518523000E976F000E966F99C019
:100438008EF09AC08FF09BC090F09CC091F09FC046
:1004480088F0A0C089F0A1C08AF0A2C08BF0A8EF04
:1004580002F08EC01FF08FC020F090C021F091C034
:1004680022F09FC023F0A0C024F0A1C025F0A2C0B4
:1004780026F063EC10F01FC038F020C039F021C01E
:100488003AF022C03BF081EC17F038C092F039C046
:1004980093F03AC094F03BC095F092C011F093C02D
:1004A80012F094C013F095C014F00AEC1BF011C0C0
:1004B80082F012C083F08EC02AF08FC02BF090C05B
:1004C8002CF091C02DF092C015F093C016F094C096
:1004D80017F095C018F09FC011F0A0C012F0A1C08D
:1004E80013F0A2C014F04EEC0EF011C02EF012C0A2
:1004F8002FF013C030F014C031F0F0EC20F02AC017
:100508008EF02BC08FF02CC090F02DC091F09FC0C2
:100518001FF0A0C020F0A1C021F0A2C022F0000E60
:10052800236E000E246E200E256E410E266E63EC9F
:1005380010F01FC09FF020C0A0F021C0A1F022C081
:10054800A2F00001964B972B8451965D9751800A33
:100558003C6E8551800A3C58D8A0B5EF02F0B7EF41
:1005680002F02DEF02F09FC011F0A0C012F0A1C060
:1005780013F0A2C014F0000E156E000E166EA00E39
:10058800176E400E186E4EEC0EF011C092F012C0AD
:1005980093F013C094F014C095F08EC02AF08FC069
:1005A8002BF090C02CF091C02DF092C02EF093C08B
:1005B8002FF094C030F095C031F08DEC1BF0D8B01E
:1005C800E8EF02F0EAEF02F0F5EF02F0000E0001AA
:1005D800926F000E936F000E946F000E956F1EEFD2
:1005E80003F08EC011F08FC012F090C013F091C0CC
:1005F80014F092C015F093C016F094C017F095C08F
:1006080018F0B1EC1EF0D8A00CEF03F00EEF03F0D9
:100618001EEF03F0000182B114EF03F016EF03F0B0
:100628001EEF03F0000E926F000E936F000E946F92
:10063800000E956F99C011F09AC012F09BC013F08C
:100648009CC014F092C015F093C016F094C017F037
:1006580095C018F03BEC05F011C08EF012C08FF079
:1006680013C090F014C091F08EC02AF08FC02BF008
:1006780090C02CF091C02DF0000E156E000E166E75
:10068800200E176E410E186E88C011F089C012F046
:100698008AC013F08BC014F04EEC0EF011C02EF08F
:1006A80012C02FF013C030F014C031F08DEC1BF0E5
:1006B800D8A061EF03F063EF03F08CEF03F00001C3
:1006C800864B872B88C011F089C012F08AC013F0BE
:1006D8008BC014F0000E156E000E166E200E176EED
:1006E800410E186E4EEC0EF011C088F012C089F061
:1006F80013C08AF014C08BF0660E00018119D8A4CB
:1007080088EF03F08AEF03F08CEF03F0844B852B1E
:1007180088C09FF089C0A0F08AC0A1F08BC0A2F069
:1007280086C077F087C078F0000E00017F6F000E5A
:100738007C6F000E7B6F000E976F000E966F8AEF2E
:1007480004F08EC01FF08FC020F090C021F091C03F
:1007580022F09FC023F0A0C024F0A1C025F0A2C0C1
:1007680026F063EC10F01FC038F020C039F021C02B
:100778003AF022C03BF081EC17F038C092F039C053
:1007880093F03AC094F03BC095F092C011F093C03A
:1007980012F094C013F095C014F00AEC1BF012BECE
:1007A800E1EF03F0125007E10A0E115CD8B0DFEF59
:1007B80003F0E1EF03F0F1EF03F092C011F093C002
:1007C80012F094C013F095C014F00AEC1BF011C09D
:1007D80082F012C083F0F6EF03F0000E0001836F81
:1007E800090E826F00017F51D8A4FDEF03F0FFEFDF
:1007F80003F027EF04F078BF06EF04F004EF04F0ED
:1008080027EF04F0000E9D25D96E010E9E21DA6EA9
:100818002E0EDF6E9D4B9E2B8C07D8A08D07010EE8
:100828007F6F27EF04F0000E9D25D96E010E9E21E3
:10083800DA6E300EDF6E9D4B9E2B8C07D8A08D078D
:100848007B07D8A07C077B517C11D8A42EEF04F03D
:1008580030EF04F017EF04F0000E9D25D96E010E5D
:100868009E21DA6E8251300FDF6E9D4B9E2B8C07D6
:10087800D8A08D078EC02AF08FC02BF090C02CF026
:1008880091C02DF092C015F093C016F094C017F0E7
:1008980095C018F09FC011F0A0C012F0A1C013F0CD
:1008A800A2C014F04EEC0EF011C02EF012C02FF0C2
:1008B80013C030F014C031F0F0EC20F02AC08EF0F4
:1008C8002BC08FF02CC090F02DC091F09FC01FF06E
:1008D800A0C020F0A1C021F0A2C022F0000E236E1B
:1008E800000E246E200E256E410E266E63EC10F06D
:1008F8001FC09FF020C0A0F021C0A1F022C0A2F02C
:1009080000017707D8A07807964B972B8451965DFE
:100918009751800A3C6E8551800A3C58D8B097EFB1
:1009280004F099EF04F0A7EF04F09EBFA5EF04F0E0
:100938009E5109E14B0E9D5DD8A0A5EF04F0A7EFED
:1009480004F0A5EF03F0000E976F4F0E966F000EA0
:100958009625D96E010E9721DA6E000EDF6E000E15
:100968003C6E010E3D6E9D513C5E9E513D5A965126
:100978003C24116E97513D20126E000E136E010E2D
:10098800146E9DC015F09EC016F0A2EC20F0000178
:100998009D51965D9D6F9E5197599E6F9851D8A411
:1009A800D8EF04F0DBEF04F0010EDCEF04F0000EEA
:1009B800966F976BE0A3E3EF04F0E5EF04F013EF15
:1009C80005F0F5EF04F09D07D8A09E07000E9D25C1
:1009D800D96E010E9E21DA6E300EDF6E8C07D8A01C
:1009E8008D078C51965D9751800A3C6E8D51800A17
:1009F8003C58D8B002EF05F004EF05F013EF05F00E
:100A08009D51965D9751800A3C6E9E51800A3C58D4
:100A1800D8A011EF05F013EF05F0E7EF04F09851B7
:100A2800D8B419EF05F01BEF05F026EF05F09D0788
:100A3800D8A09E07000E9D25D96E010E9E21DA6E64
:100A480098C0DFFF96518C5F97518D5B70C021F085
:100A580071C022F0000E9D25236E010E9E21246E8A
:100A68008CC025F08DC026F085EC1FF012001450C4
:100A7800800B1D6E145014241F6E13AE46EF05F044
:100A880048EF05F049EF05F01F801F50D8B44FEF2D
:100A980005F051EF05F066EF05F01F28D8A457EFD1
:100AA80005F059EF05F061EF05F0000E116E000E2C
:100AB800126E000E136E000E146E138E000E146E5E
:100AC8006EEF05F0000E116E000E126E000E136E22
:100AD800000E146E1850800B1E6E1D501E18D8B4D0
:100AE80078EF05F07AEF05F07BEF05F01D8C1850D4
:100AF80018241E6E17AE83EF05F085EF05F086EF1C
:100B080005F01E801E50D8B48CEF05F08EEF05F06E
:100B1800A3EF05F01E28D8A494EF05F096EF05F092
:100B28009EEF05F0000E156E000E166E000E176E85
:100B3800000E186E178E000E186EABEF05F0000E43
:100B4800156E000E166E000E176E000E186E1F50F2
:100B58001E5CD8B0B2EF05F0B4EF05F0DBEF05F09E
:100B68001DACB9EF05F0BBEF05F0BDEF05F0800E49
:100B78001D1A1FC020F01EC01FF020C01EF011C09B
:100B880020F015C011F020C015F012C020F016C0DA
:100B980012F020C016F013C020F017C013F020C0C8
:100BA80017F014C020F018C014F020C018F0000E80
:100BB800206E1F501EC019F01A6A195E000E1A5ACC
:100BC8001ABEF0EF05F01A5009E11A0E195CD8A008
:100BD800F0EF05F0F2EF05F029EF06F011501210D2
:100BE80013101410D8A4FBEF05F0FEEF05F0010E6A
:100BF800FFEF05F0000E206E000E116E000E126E53
:100C0800000E136E000E146E1EC01FF032EF06F0B9
:100C180020A011EF06F013EF06F019EF06F0D890B8
:100C280020300109206E1BEF06F0D890203211A069
:100C380020EF06F022EF06F023EF06F0208E1434A2
:100C480014321332123211321F2A1E501F5CD8A0E0
:100C580030EF06F032EF06F00CEF06F01DBC37EF70
:100C680006F039EF06F079EF06F01F50D8A43FEFF1
:100C780006F041EF06F04BEF06F0000E116E000E85
:100C8800126E000E136E000E146E9AEF07F01550D8
:100C9800112616501222175013221850142214A08D
:100CA80058EF06F05AEF06F006EF07F020A05FEFC6
:100CB80006F061EF06F067EF06F0D89020300109E2
:100CC800206E69EF06F0D890203211A06EEF06F082
:100CD80070EF06F071EF06F0208E143414321332E0
:100CE800123211321F2A06EF07F01550115C165008
:100CF8001258175013581450800A196E1850800A49
:100D08001958D8B08AEF06F08CEF06F0B7EF06F066
:100D18001150155C196E125016581A6E1350175848
:100D28001B6E145018581C6EFF0E1924116EFF0EFE
:100D38001A20126EFF0E1B20136EFF0E1C20146E5D
:100D4800800E1D1A206C2050D8A4ADEF06F0AFEF2E
:100D580006F0BFEF06F0010E1126000E1222132234
:100D68001422BFEF06F01550115E1650125A175094
:100D7800135A1850145A1150121013101410D8A4E2
:100D8800C8EF06F0CAEF06F0FFEF06F02050D8A42F
:100D9800D0EF06F0D2EF06F0FFEF06F0000E116E6E
:100DA800000E126E000E136E000E146E9AEF07F00E
:100DB800D890113612361336143620AEE6EF06F008
:100DC800E8EF06F0E9EF06F0118020A0EEEF06F05C
:100DD800F0EF06F0F4EF06F0D8802036F6EF06F0D4
:100DE800D89020361F50D8B4FCEF06F0FEEF06F07E
:100DF800FFEF06F01F0613AE04EF07F006EF07F04B
:100E0800DCEF06F0000E1E6E20AE0DEF07F00FEFC0
:100E180007F027EF07F020C019F07F0E1916D8B495
:100E280018EF07F01AEF07F01EEF07F0010E1E6E1D
:100E380027EF07F011A023EF07F025EF07F027EFC2
:100E480007F01AEF07F01E50D8B42DEF07F02FEF78
:100E580007F05AEF07F0010E1126000E1222132296
:100E6800142214A03AEF07F03CEF07F05AEF07F00E
:100E780011C019F012C01AF013C01BF014C01CF0F6
:100E88001C341C321B321A32193219C011F01AC024
:100E980012F01BC013F01CC014F01F28D8B457EF71
:100EA80007F059EF07F05AEF07F01F2A1F28D8B4A8
:100EB80060EF07F062EF07F06AEF07F01F50D8A461
:100EC80068EF07F06AEF07F07CEF07F0000E116E8D
:100ED800000E126E000E136E000E146E1F50D8A472
:100EE80078EF07F07AEF07F07CEF07F0000E1D6E41
:100EF8001FA081EF07F083EF07F086EF07F0138E4E
:100F080087EF07F0139ED8901F30146E1DAE8FEF39
:100F180007F091EF07F092EF07F0148E11C011F06F
:100F280012C012F013C013F014C014F012000450D1
:100F3800800B0D6E045004240F6E03AEA6EF07F06D
:100F4800A8EF07F0A9EF07F00F800F50D8B4AFEF64
:100F580007F0B1EF07F0C6EF07F00F28D8A4B7EFF6
:100F680007F0B9EF07F0C1EF07F0000E016E000EB1
:100F7800026E000E036E000E046E038E000E046EE9
:100F8800CEEF07F0000E016E000E026E000E036E2B
:100F9800000E046E0850800B0E6E0D500E18D8B45B
:100FA800D8EF07F0DAEF07F0DBEF07F00D8C085009
:100FB80008240E6E07AEE3EF07F0E5EF07F0E6EF63
:100FC80007F00E800E50D8B4ECEF07F0EEEF07F004
:100FD80003EF08F00E28D8A4F4EF07F0F6EF07F0B7
:100FE800FEEF07F0000E056E000E066E000E076E8F
:100FF800000E086E078E000E086E0BEF08F0000E4C
:10100800056E000E066E000E076E000E086E0F507D
:101018000E5CD8B012EF08F014EF08F03BEF08F0C0
:101028000DAC19EF08F01BEF08F01DEF08F0800E6B
:101038000D1A0FC010F00EC00FF010C00EF001C056
:1010480010F005C001F010C005F002C010F006C095
:1010580002F010C006F003C010F007C003F010C083
:1010680007F004C010F008C004F010C008F0000E2B
:10107800106E0F500EC009F00A6A095E000E0A5A77
:101088000ABE50EF08F00A5009E11A0E095CD8A010
:1010980050EF08F052EF08F089EF08F00150021005
:1010A80003100410D8A45BEF08F05EEF08F0010EFF
:1010B8005FEF08F0000E106E000E016E000E026E5B
:1010C800000E036E000E046E0EC00FF092EF08F0D3
:1010D80010A071EF08F073EF08F079EF08F0D890DE
:1010E80010300109106E7BEF08F0D890103201A083
:1010F80080EF08F082EF08F083EF08F0108E0434D8
:1011080004320332023201320F2A0E500F5CD8A08B
:1011180090EF08F092EF08F06CEF08F00DBC97EF35
:1011280008F099EF08F0D9EF08F00F50D8A49FEF16
:1011380008F0A1EF08F0ABEF08F0000E016E000E0A
:10114800026E000E036E000E046EFAEF09F00550F1
:10115800012606500222075003220850042204A048
:10116800B8EF08F0BAEF08F066EF09F010A0BFEF8B
:1011780008F0C1EF08F0C7EF08F0D8901030010967
:10118800106EC9EF08F0D890103201A0CEEF08F029
:10119800D0EF08F0D1EF08F0108E04340432033297
:1011A800023201320F2A66EF09F00550015C065041
:1011B8000258075003580450800A096E0850800AE4
:1011C8000958D8B0EAEF08F0ECEF08F017EF09F08B
:1011D8000150055C096E025006580A6E0350075804
:1011E8000B6E045008580C6EFF0E0924016EFF0E9A
:1011F8000A20026EFF0E0B20036EFF0E0C20046EF9
:10120800800E0D1A106C1050D8A40DEF09F00FEFD6
:1012180009F01FEF09F0010E0126000E0222032239
:1012280004221FEF09F00550015E0650025A0750CC
:10123800035A0850045A0150021003100410D8A48D
:1012480028EF09F02AEF09F05FEF09F01050D8A451
:1012580030EF09F032EF09F05FEF09F0000E016E90
:10126800000E026E000E036E000E046EFAEF09F017
:10127800D890013602360336043610AE46EF09F030
:1012880048EF09F049EF09F0018010A04EEF09F08E
:1012980050EF09F054EF09F0D880103656EF09F0F6
:1012A800D89010360F50D8B45CEF09F05EEF09F013
:1012B8005FEF09F00F0603AE64EF09F066EF09F07F
:1012C8003CEF09F0000E0E6E10AE6DEF09F06FEFF7
:1012D80009F087EF09F010C009F07F0E0916D8B49D
:1012E80078EF09F07AEF09F07EEF09F0010E0E6E43
:1012F80087EF09F001A083EF09F085EF09F087EF88
:1013080009F07AEF09F00E50D8B48DEF09F08FEF9D
:1013180009F0BAEF09F0010E0126000E022203229D
:10132800042204A09AEF09F09CEF09F0BAEF09F043
:1013380001C009F002C00AF003C00BF004C00CF0B1
:101348000C340C320B320A32093209C001F00AC0DF
:1013580002F00BC003F00CC004F00F28D8B4B7EFAC
:1013680009F0B9EF09F0BAEF09F00F2A0F28D8B43D
:10137800C0EF09F0C2EF09F0CAEF09F00F50D8A486
:10138800C8EF09F0CAEF09F0DCEF09F0000E016EB2
:10139800000E026E000E036E000E046E0F50D8A4ED
:1013A800D8EF09F0DAEF09F0DCEF09F0000E0D6E66
:1013B8000FA0E1EF09F0E3EF09F0E6EF09F0038E83
:1013C800E7EF09F0039ED8900F30046E0DAEEFEFF3
:1013D80009F0F1EF09F0F2EF09F0048E01C001F015
:1013E80002C002F003C003F004C004F01200A5C05C
:1013F800D9FFA6C0DAFFDECFF6FFDDCFF7FF080082
:10140800F550250AD8A40BEF0AF00DEF0AF01DEFEE
:101418000CF0A5C0D9FFA6C0DAFFDE2A000EDD2237
:10142800000E0001DD6F000EDC6FDCC0E0F0DE694D
:10143800DF69000EAE6F000EAD6F4DEF0AF0E0836E
:10144800A5C0D9FFA6C0DAFFDE2A000EDD224DEFC7
:101458000AF0000EAE6F010EAD6F4DEF0AF0A5C099
:10146800D9FFA6C0DAFFDECFF6FFDDCFF7FF080011
:10147800F550A96FAA6BAA51000AD8B446EF0AF032
:101488002DEF0AF0A951300AD8B423EF0AF02DEF56
:101498000AF0AD51AE11D8B454EF0AF056EF0AF085
:1014A80033EF0AF0A5C0D9FFA6C0DAFFDECFF6FFFA
:1014B800DDCFF7FF0800F5502E0AD8A466EF0AF032
:1014C80068EF0AF0D6EF0AF0000EDF6F000EDE6F4D
:1014D800A5C0D9FFA6C0DAFFDE2A000EDD22A5C00E
:1014E800D9FFA6C0DAFFDECFF6FFDDCFF7FF080091
:1014F800F5502A0AD8A483EF0AF085EF0AF0A2EF84
:101508000AF0A5C0D9FFA6C0DAFFDE2A000EDD2248
:10151800A7C0D9FFA8C0DAFFDFCFA9F0020EDE26E8
:10152800DFCFAAF0000EDD22A9C0D9FFAAC0DAFFDA
:10153800DECFDEF0DDCFDFF0D6EF0AF0A5C0D9FFB1
:10154800A6C0DAFFDECF17F0DDCF18F065EC1AF091
:1015580017C0DEF018C0DFF0B9EF0AF0A5C0D9FF58
:10156800A6C0DAFFDE2A000EDD22A5C0D9FFA6C07C
:10157800DAFFDECFF6FFDDCFF7FF0800F5CFA9F0E1
:10158800D00E0001A925AA6FAB6BFF0EAB23AB51A0
:1015980009E10A0EAA5DD8A0D4EF0AF0D6EF0AF046
:1015A800B2EF0AF0A5C0D9FFA6C0DAFFDECFB8F0C7
:1015B800DDCFB9F0B8C0F6FFB9C0F7FF0800F550A5
:1015C800750AD8A4EAEF0AF0ECEF0AF048EF0BF03E
:1015D800A7C0D9FFA8C0DAFFDFCFA9F0020EDE2628
:1015E800DFCFAAF0000EDD22A9C0D9FFAAC0DAFF1A
:1015F800DECFABF0DDCFACF0ABC0AFF0ACC0B0F03D
:10160800B16BB26BB36BB46BB56BB66B010EB8252F
:10161800A96F000EB921AA6FA5C0D9FFA6C0DAFF2D
:10162800A9C0DEFFAAC0DDFF32EF0BF0A3C02CF08B
:10163800A4C02DF0AFC02EF0B0C02FF0B1C030F074
:10164800B2C031F0B3C032F0B4C033F0B5C034F03A
:10165800B6C035F08CEC18F031EF0CF0B8C0F6FFDE
:10166800B9C0F7FF0800F550A96FAA6BAA51000A84
:10167800D8B441EF0BF048EF0BF0A951750AD8B474
:101688001AEF0BF048EF0BF0A5C0D9FFA6C0DAFFA0
:10169800DECFB8F0DDCFB9F0B8C0F6FFB9C0F7FFBC
:1016A8000800F5CFB7F065EF0BF0B84BB92B7EEF1C
:1016B8000BF06C0EB76F7EEF0BF0000EB76F7EEF7E
:1016C8000BF0B751A96FAA6BAA51000AD8B46FEFF3
:1016D8000BF061EF0BF0A9514C0AD8B459EF0BF09D
:1016E8002A0AD8B45DEF0BF00A0AD8B459EF0BF008
:1016F80061EF0BF0B8C0F6FFB9C0F7FF0800F5506E
:10170800660AD8A48AEF0BF08CEF0BF014EF0CF0FC
:10171800C2EF0BF0A7C0D9FFA8C0DAFFDFCFA9F04E
:10172800040EDE26DFCFAAF0000EDD22A9C0D9FF05
:10173800AAC0DAFFDECFAFF0DECFB0F0DECFB1F077
:10174800DECFB2F0D7EF0BF0A7C0D9FFA8C0DAFF01
:10175800DFCFA9F0040EDE26DFCFAAF0000EDD22CF
:10176800A9C0D9FFAAC0DAFFDECFAFF0DECFB0F054
:10177800DECFB1F0DECFB2F0D7EF0BF0B751A96FE3
:10178800AA6BAA51000AD8B4CCEF0BF0D7EF0BF034
:10179800A9514C0AD8B4A8EF0BF0200AD8B48EEFA0
:1017A8000BF0D7EF0BF0010EB825A96F000EB92189
:1017B800AA6FA5C0D9FFA6C0DAFFA9C0DEFFAAC0DC
:1017C800DDFFFEEF0BF0A3C070F0A4C071F0AFC056
:1017D80072F0B0C073F0B1C074F0B2C075F0B8C0A8
:1017E800F6FFB9C0F7FF0800F5CF76F009EC00F076
:1017F80031EF0CF0B8C0F6FFB9C0F7FF0800F5509C
:10180800A96FAA6BAA51000AD8B40DEF0CF014EF17
:101818000CF0A951660AD8B4E7EF0BF014EF0CF0FE
:10182800A5C0D9FFA6C0DAFFDE2A000EDD2231EFFF
:101838000CF0A5C0D9FFA6C0DAFFDECFF6FFDDCFDA
:10184800F7FF0800F550116E126AA3C013F0A4C088
:1018580014F04CEC1EF014EF0CF01200000E496E60
:10186800000E486E010E146E020E7BEC1DF0210E68
:10187800156E7F0E166E46EC1FF0010E146E010EEB
:101888007BEC1DF0BC0E156E7F0E166E46EC1FF03D
:101898000A0E146E010E7BEC1DF002EC22F0000E15
:1018A8004E6E000E4D6E8EEF0CF030EC12F04E6E58
:1018B8004E50D8B462EF0CF064EF0CF081EF0CF0EE
:1018C8002A0E4E18D8B46BEF0CF06DEF0CF076EFD3
:1018D8000CF0230E4E18D8A474EF0CF076EF0CF031
:1018E80078EF0CF0300E4E6E4E5094EC21F0D00E86
:1018F8004E24466E476AFF0E472281B086EF0CF0F1
:1019080088EF0CF08EEF0CF0000E476E000E466E5E
:10191800CFEF0CF04E50D8B494EF0CF096EF0CF0DB
:1019280059EF0CF0CFEF0CF030EC12F04D6E4D503B
:10193800D8B4A1EF0CF0A3EF0CF0C2EF0CF02A0E14
:101948004D18D8B4AAEF0CF0ACEF0CF0B5EF0CF0D2
:10195800230E4D18D8A4B3EF0CF0B5EF0CF0B7EF89
:101968000CF0300E4D6E4D5094EC21F0FBEC21F054
:10197800D00E4D24446E456AFF0E452281B0C7EF54
:101988000CF0C9EF0CF0CFEF0CF0000E456E000E16
:10199800446ED7EF0CF04D50D8B4D5EF0CF0D7EF1C
:1019A8000CF098EF0CF046C011F047C012F0000E92
:1019B800146E0A0E136EC6EC21F044501124486EC2
:1019C80045501220496E060E1C6E130E1B6EAE0E8D
:1019D800E82EFED71B2EFCD71C2EFAD727EF0EF0C9
:1019E800050E1C6E0F0E1B6EF10EE82EFED71B2E79
:1019F800FCD71C2EFAD700F01EEC22F0010E146E54
:101A0800020E7BEC1DF0320E156E7F0E166E46EC44
:101A18001FF081B012EF0DF014EF0DF00DEF0DF087
:101A2800030E1C6E080E1B6E770EE82EFED71B2EBB
:101A3800FCD71C2EFAD700F02EEF0DF0010E146E15
:101A4800010E7BEC1DF0B00E156E7F0E166E46EC87
:101A58001FF08A8681A033EF0DF035EF0DF022EFED
:101A68000DF08A96000E4B6E000E4A6E4DEF0EF08A
:101A78001EEC22F0010E146E010E7BEC1DF0730EAD
:101A8800156E7F0E166E46EC1FF0050E496EDC0EC5
:101A9800486E010E146E020E7BEC1DF0D10E156E11
:101AA8007F0E166E46EC1FF00A0E146E020E7BECCB
:101AB8001DF0D90E156E7F0E166E46EC1FF0000E47
:101AC8004B6E010E4A6E4DEF0EF01EEC22F0010E29
:101AD800146E010E7BEC1DF0630E156E7F0E166EF4
:101AE80046EC1FF0030E496EE80E486E010E146EA8
:101AF800020E7BEC1DF0D10E156E7F0E166E46ECB5
:101B08001FF00A0E146E020E7BEC1DF0D90E156E36
:101B18007F0E166E46EC1FF063EF0DF01EEC22F000
:101B2800010E146E010E7BEC1DF0920E156E7F0EE9
:101B3800166E46EC1FF0010E496EF40E486E010E4B
:101B4800146E020E7BEC1DF0D10E156E7F0E166E14
:101B580046EC1FF00A0E146E020E7BEC1DF0D90E37
:101B6800156E7F0E166E46EC1FF063EF0DF01EEC3F
:101B780022F0010E146E010E7BEC1DF0A10E156E05
:101B88007F0E166E46EC1FF0000E496EFA0E486E78
:101B9800010E146E020E7BEC1DF0D10E156E7F0E39
:101BA800166E46EC1FF00A0E146E020E7BEC1DF04A
:101BB800D90E156E7F0E166E46EC1FF063EF0DF012
:101BC8001EEC22F0010E146E010E7BEC1DF0430E8C
:101BD800156E7F0E166E46EC1FF0000E496E640EF1
:101BE800486E010E146E020E7BEC1DF0D10E156EC0
:101BF8007F0E166E46EC1FF00A0E146E020E7BEC7A
:101C08001DF0D90E156E7F0E166E46EC1FF063EFB1
:101C18000DF01EEC22F0010E146E010E7BEC1DF08F
:101C2800100E156E7F0E166E46EC1FF0010E146E28
:101C3800020E7BEC1DF0D10E156E7F0E166E46EC73
:101C48001FF04DEF0EF048C01BF049C01CF01C50AF
:101C5800000AD8B432EF0EF00DEF0EF01B50000A58
:101C6800D8B4F4EF0CF0010AD8B43CEF0DF0030A35
:101C7800D8B469EF0DF0010AD8B492EF0DF0070A55
:101C8800D8B4BBEF0DF0010AD8B4E4EF0DF00DEFB6
:101C98000EF012001450800B1D6E14501424236E85
:101CA80013AE59EF0EF05BEF0EF05CEF0EF02380F1
:101CB8002350D8B462EF0EF064EF0EF077EF0EF019
:101CC8002328D8A46AEF0EF06CEF0EF074EF0EF034
:101CD800000E116E000E126E000E136E000E146EC2
:101CE800138E7FEF0EF0000E116E000E126E000EB6
:101CF800136E000E146E1850800B1D1A18501824FD
:101D08001E6E17AE8AEF0EF08CEF0EF08DEF0EF010
:101D18001E801E50D8B493EF0EF095EF0EF0A8EF8A
:101D28000EF01E28D8A49BEF0EF09DEF0EF0A5EF45
:101D38000EF0000E156E000E166E000E176E000ED9
:101D4800186E178EB0EF0EF0000E156E000E166EA0
:101D5800000E176E000E186E1E50D8B4B6EF0EF0B7
:101D6800B8EF0EF0C0EF0EF02350D8A4BEEF0EF07F
:101D7800C0EF0EF0CAEF0EF0000E116E000E126EDC
:101D8800000E136E000E146E62EF10F01750110261
:101D9800F3CF28F0F4CF29F028501F6E206A216A6B
:101DA800226A2950246E256A266A276A165012026A
:101DB800F3CF28F0F4CF29F028501F26000E202258
:101DC8002122222229502426000E252226222722DB
:101DD80015501302F3CF28F0F4CF29F028501F260E
:101DE800000E20222122222229502426000E2522FC
:101DF8002622272221C022F020C021F01FC020F077
:101E08001F6A15501202F3CF28F0F4CF29F028509A
:101E18001F2629502022000E2122000E22221650B1
:101E28001102F3CF28F0F4CF29F028501F262950AB
:101E38002022000E2122000E222221C022F020C0E2
:101E480021F01FC020F01F6A15501102F3CF28F0AF
:101E5800F4CF29F028501F2629502022000E2122D5
:101E6800000E222217501202F3CF28F0F4CF29F0E7
:101E78002850242629502522000E2622000E27222B
:101E880016501302F3CF28F0F4CF29F02850242657
:101E980029502522000E2622000E27221750130251
:101EA800F3CF28F0F4CF29F02850196E29501A6E74
:101EB8001B6A1C6A1BC01CF01AC01BF019C01AF060
:101EC800196A195024261A5025221B5026221C5004
:101ED80027221FC019F020C01AF021C01BF022C011
:101EE8001CF0190E7DEF0FF0D8901C321B321A32FD
:101EF8001932E82E78EF0FF0195024261A502522AF
:101F08001B5026221C50272221C022F020C021F07D
:101F18001FC020F01F6A1E5023C019F01A6A192624
:101F2800000E1A22820E1924286EFF0E1A20296E1E
:101F3800B3EF0FF0D890243625362636273622AE52
:101F4800A8EF0FF0AAEF0FF0ABEF0FF02480D890B6
:101F58001F362036213622362806D8A0290626AE76
:101F6800B8EF0FF0BAEF0FF09EEF0FF0000E1E6EF5
:101F780022AEC1EF0FF0C3EF0FF0E7EF0FF0FF0E47
:101F88001F14196EFF0E20141A6EFF0E21141B6EFB
:101F98007F0E22141C6E19501A101B101C10D8B476
:101FA800D8EF0FF0DAEF0FF0DEEF0FF0010E1E6E34
:101FB800E7EF0FF024A0E3EF0FF0E5EF0FF0E7EF06
:101FC8000FF0DAEF0FF01E50D8B4EDEF0FF0EFEF8F
:101FD8000FF013EF10F0010E2426000E2522262202
:101FE800272227A0FAEF0FF0FCEF0FF013EF10F005
:101FF80024C019F025C01AF026C01BF027C01CF019
:102008001C341C321B321A32193219C024F01AC07F
:1020180025F01BC026F01CC027F0284A292A29BE13
:102028001EEF10F0295008E12828D8A01EEF10F064
:1020380020EF10F02AEF10F0000E246E000E256E2F
:10204800800E266E7F0E276E58EF10F029BE37EFF0
:1020580010F0295006E12804D8B035EF10F037EF1A
:1020680010F043EF10F0000E246E000E256E000EE7
:10207800266E000E276E000E1D6E58EF10F028C059
:1020880023F0FF0E2416FF0E25167F0E2616000ECF
:10209800271623A052EF10F054EF10F055EF10F070
:1020A800268ED8902330276E1D50271224C011F099
:1020B80025C012F026C013F027C014F012002250D9
:1020C800800B2F6E22502224366E21AE6EEF10F058
:1020D80070EF10F071EF10F036803650D8B477EF0B
:1020E80010F079EF10F08EEF10F03628D8A47FEFBB
:1020F80010F081EF10F089EF10F0000E1F6E000E47
:10210800206E000E216E000E226E218E000E226EB1
:1021180096EF10F0000E1F6E000E206E000E216E5E
:10212800000E226E2650800B2F1A26502624376E5A
:1021380025AEA1EF10F0A3EF10F0A4EF10F0378058
:102148003750D8B4AAEF10F0ACEF10F0C1EF10F090
:102158003728D8A4B2EF10F0B4EF10F0BCEF10F0AD
:10216800000E236E000E246E000E256E000E266EE5
:10217800258E000E266EC9EF10F0000E236E000E9D
:10218800246E000E256E000E266E23502410251096
:102198002610D8A4D2EF10F0D4EF10F0ECEF10F026
:1021A800000E1F6E000E206E000E216E000E226EB5
:1021B800800E21127F0E22122F5022121FC01FF0F4
:1021C80020C020F021C021F022C022F02FEF12F011
:1021D8003650D8A4F2EF10F0F4EF10F0FEEF10F044
:1021E800000E1F6E000E206E000E216E000E226E75
:1021F8002FEF12F0375036C027F0286A275E000EFE
:10220800285A7F0E2724306E000E2820316E1FC0FA
:102218002BF020C02CF021C02DF022C02EF0000E93
:102228001F6E000E206E000E216E000E226E000E34
:10223800326E000E336E000E346E000E356E000ED8
:10224800376E5FEF11F03750D8B42DEF11F02FEF44
:1022580011F046EF11F0D8902B362C362D362E364D
:10226800D8901F3620362136223635AE3EEF11F093
:1022780040EF11F041EF11F01F80D890323633361D
:102288003436353623502B5C24502C5825502D5885
:1022980026502E58D8A053EF11F055EF11F05EEFED
:1022A80011F0358C23502B5E24502C5A25502D5A72
:1022B80026502E5A372A190E376465EF11F067EF4A
:1022C80011F027EF11F02B502C102D102E10D8B430
:1022D80070EF11F072EF11F08AEF11F032808AEF8F
:1022E80011F0D8901F3620362136223635AE7FEFD2
:1022F80011F081EF11F082EF11F01F80D890323683
:102308003336343635363006D8A0310621AE8FEF55
:1023180011F091EF11F075EF11F0000E376E35AE38
:1023280098EF11F09AEF11F0BEEF11F0FF0E321492
:10233800276EFF0E3314286EFF0E3414296E7F0E9D
:1023480035142A6E2750281029102A10D8B4AFEF58
:1023580011F0B1EF11F0B5EF11F0010E376EBEEFCD
:1023680011F01FA0BAEF11F0BCEF11F0BEEF11F0A1
:10237800B1EF11F03750D8B4C4EF11F0C6EF11F037
:10238800EAEF11F0010E1F26000E20222122222240
:1023980022A0D1EF11F0D3EF11F0EAEF11F01FC036
:1023A80027F020C028F021C029F022C02AF02A34C2
:1023B8002A3229322832273227C01FF028C020F0BD
:1023C80029C021F02AC022F0304A312A31BEF5EF67
:1023D80011F0315008E13028D8A0F5EF11F0F7EFEF
:1023E80011F002EF12F0000E316E3068000E1F6E11
:1023F800000E206E000E216E000E226E31BE0FEF11
:1024080012F0315006E13004D8B00DEF12F00FEFA2
:1024180012F01DEF12F0000E316E000E306E000E3D
:102428001F6E000E206E000E216E000E226E000E32
:102438002F6E30C036F036A024EF12F026EF12F0DF
:1024480029EF12F0218E2AEF12F0219ED890363013
:10245800226EE0EF10F01200839E838C838A8388BB
:1024680083B639EF12F03BEF12F054EF12F0060E7C
:10247800116E300EE82EFED7112EFCD700D083A6A1
:1024880048EF12F04AEF12F043EF12F00D0E116E02
:10249800FC0EE82EFED7112EFCD7310EC1EF13F03B
:1024A80083B459EF12F05BEF12F074EF12F0060EDE
:1024B800116E300EE82EFED7112EFCD700D083A463
:1024C80068EF12F06AEF12F063EF12F00D0E116E62
:1024D800FC0EE82EFED7112EFCD7320EC1EF13F0FA
:1024E80083B279EF12F07BEF12F094EF12F0060E40
:1024F800116E300EE82EFED7112EFCD700D083A225
:1025080088EF12F08AEF12F083EF12F00D0E116EC1
:10251800FC0EE82EFED7112EFCD7330EC1EF13F0B8
:10252800838E839C838A838883B69DEF12F09FEF06
:1025380012F0B8EF12F0060E116E300EE82EFED72C
:10254800112EFCD700D083A6ACEF12F0AEEF12F03C
:10255800A7EF12F00D0E116EFC0EE82EFED7112E0D
:10256800FCD7340EC1EF13F083B4BDEF12F0BFEF08
:1025780012F0D8EF12F0060E116E300EE82EFED7CC
:10258800112EFCD700D083A4CCEF12F0CEEF12F0BE
:10259800C7EF12F00D0E116EFC0EE82EFED7112EAD
:1025A800FCD7350EC1EF13F083B2DDEF12F0DFEF89
:1025B80012F0F8EF12F0060E116E300EE82EFED76C
:1025C800112EFCD700D083A2ECEF12F0EEEF12F040
:1025D800E7EF12F00D0E116EFC0EE82EFED7112E4D
:1025E800FCD7360EC1EF13F0838E838C839A8388D1
:1025F80083B601EF13F003EF13F01CEF13F0060E90
:10260800116E300EE82EFED7112EFCD700D083A60F
:1026180010EF13F012EF13F00BEF13F00D0E116E15
:10262800FC0EE82EFED7112EFCD7370EC1EF13F0A3
:1026380083B421EF13F023EF13F03CEF13F0060EF1
:10264800116E300EE82EFED7112EFCD700D083A4D1
:1026580030EF13F032EF13F02BEF13F00D0E116E75
:10266800FC0EE82EFED7112EFCD7380EC1EF13F062
:1026780083B241EF13F043EF13F05CEF13F0060E53
:10268800116E300EE82EFED7112EFCD700D083A293
:1026980050EF13F052EF13F04BEF13F00D0E116ED5
:1026A800FC0EE82EFED7112EFCD7390EC1EF13F021
:1026B800838E838C838A839883B665EF13F067EFE4
:1026C80013F080EF13F0060E116E300EE82EFED7D1
:1026D800112EFCD700D083A674EF13F076EF13F019
:1026E8006FEF13F00D0E116EFC0EE82EFED7112EB3
:1026F800FCD72A0EC1EF13F083B485EF13F087EFF0
:1027080013F0A0EF13F0060E116E300EE82EFED770
:10271800112EFCD700D083A494EF13F096EF13F09A
:102728008FEF13F00D0E116EFC0EE82EFED7112E52
:10273800FCD7300EC1EF13F083B2A5EF13F0A7EF6B
:1027480013F0C0EF13F0060E116E300EE82EFED710
:10275800112EFCD700D083A2B4EF13F0B6EF13F01C
:10276800AFEF13F00D0E116EFC0EE82EFED7112EF2
:10277800FCD7230EC1EF13F0000E12001EEC22F05E
:10278800020E0001C96F040EC86FBA0EE82EFED7FC
:10279800C82FFCD7C92FFAD700F0010E146E010E0E
:1027A8007BEC1DF0530E156E7F0E166E46EC1FF077
:1027B8000C0E146E020E7BEC1DF0ED0E156E7F0EE6
:1027C800166E46EC1FF0070E146E020E7BEC1DF021
:1027D800E60E0001C06F000EC16FFB0EC26F7F0EC8
:1027E800C36F48C0C4F049C0C5F023EC20F00A0EFE
:1027F800146E010E7BEC1DF0E60E156E000E166EC3
:1028080046EC1FF0010E146E020E7BEC1DF0C80E94
:10281800156E7F0E166E46EC1FF08B80020E0001BF
:10282800C96F040EC86FBA0EE82EFED7C82FFCD7A2
:10283800C92FFAD700F08B9048C011F049C012F0A8
:10284800000E12BEFF0E136E146E010E8BEC19F003
:1028580011C01FF012C020F013C021F014C022F0E4
:102868008D0E236EB00E246E5C0E256E400E266E05
:1028780063EC10F01FC0D8F020C0D9F021C0DAF006
:1028880022C0DBF0000E406E000E416E000E426E5C
:10289800000E436E000E0001D46F000ED56F000EBF
:1028A800D66F000ED76F17EC22F08A86C8EF14F0A7
:1028B80040C011F041C012F042C013F043C014F000
:1028C8008D0E156EB00E166E5C0E176E400E186EDD
:1028D8004EEC0EF011C0D4F012C0D5F013C0D6F0F3
:1028E80014C0D7F0E10E0001C06F000EC16FE10EF9
:1028F800C26F7F0EC36FD4C0C4F0D5C0C5F0D6C0B8
:10290800C6F0D7C0C7F023EC20F0010E146E020EFB
:102918007BEC1DF0E10E156E000E166E46EC1FF0F6
:1029280080BA99EF14F09BEF14F0A3EF14F0100E97
:10293800146E010E7BEC1DF0000E94EC21F081B0BA
:10294800A8EF14F0AAEF14F0C8EF14F08A968B8061
:10295800070E0001C96F170EC86F6A0EE82EFED762
:10296800C82FFCD7C92FFAD700F08B90000E406E05
:10297800000E416E000E426E000E436E000E4B6E4E
:10298800000E4A6EE1EF14F0D8C02AF0D9C02BF03F
:10299800DAC02CF0DBC02DF040C02EF041C02FF083
:1029A80042C030F043C031F08DEC1BF0D8B0DFEFFF
:1029B80014F0E1EF14F05CEF14F040C02AF041C0CD
:1029C8002BF042C02CF043C02DF0D8C02EF0D9C057
:1029D8002FF0DAC030F0DBC031F08DEC1BF0D8A05E
:1029E800F8EF14F0FAEF14F023EF15F08A96000EC2
:1029F800406E000E416E000E426E000E436E8B80DC
:102A0800020E0001C96F040EC86FBA0EE82EFED779
:102A1800C82FFCD7C92FFAD700F08B90000E4B6E49
:102A2800020E4A6E0B0E0001C96F260EC86F5D0EAE
:102A3800E82EFED7C82FFCD7C92FFAD700D012002E
:102A48001B6E29EF16F0000E1C6E1C501524176E15
:102A5800000E1620186E17C0F6FF18C0F7FF080002
:102A6800F55094EC21F01C2A070E1C643EEF15F07B
:102A780040EF15F029EF15F056EF16F0080E1D6E11
:102A88001D501524176E000E1620186EF80E172408
:102A9800196EFF0E18201A6E19C0F6FF1AC0F7FF3C
:102AA8000800F55094EC21F01D2A0F0E1D645FEF0D
:102AB80015F061EF15F044EF15F056EF16F0100E13
:102AC8001E6E1E501524176E000E1620186EF00E7E
:102AD8001724196EFF0E18201A6E19C0F6FF1AC0B7
:102AE800F7FF0800F55094EC21F01E2A170E1E641B
:102AF80080EF15F082EF15F065EF15F056EF16F040
:102B0800180E1F6E1F501524176E000E1620186E13
:102B1800E80E1724196EFF0E18201A6E19C0F6FF5A
:102B28001AC0F7FF0800F55094EC21F01F2A1F0E79
:102B38001F64A1EF15F0A3EF15F086EF15F056EF1F
:102B480016F0200E206E20501524176E000E162049
:102B5800186EE00E1724196EFF0E18201A6E19C091
:102B6800F6FF1AC0F7FF0800F55094EC21F0202A70
:102B7800270E2064C2EF15F0C4EF15F0A7EF15F08B
:102B880056EF16F0280E216E21501524176E000EF0
:102B98001620186ED80E1724196EFF0E18201A6EFC
:102BA80019C0F6FF1AC0F7FF0800F55094EC21F0A1
:102BB800212A2F0E2164E3EF15F0E5EF15F0C8EF99
:102BC80015F056EF16F0300E226E22501524176EAF
:102BD800000E1620186ED00E1724196EFF0E18203E
:102BE8001A6E19C0F6FF1AC0F7FF0800F55094ECEA
:102BF80021F0222A370E226404EF16F006EF16F0B1
:102C0800E9EF15F056EF16F0380E236E2350152411
:102C1800176E000E1620186EC80E1724196EFF0EB8
:102C280018201A6E19C0F6FF1AC0F7FF0800F550F1
:102C380094EC21F0232A3F0E236425EF16F027EFAA
:102C480016F00AEF16F056EF16F01B50176E186ABA
:102C58001850000AD8B433EF16F056EF16F0175094
:102C6800000AD8B427EF15F0010AD8B442EF15F0DE
:102C7800030AD8B463EF15F0010AD8B484EF15F04D
:102C8800070AD8B4A5EF15F0010AD8B4C6EF15F0B5
:102C9800030AD8B4E7EF15F0010AD8B408EF16F024
:102CA80056EF16F01200720ED36EF28EF294F28A7C
:102CB80092880F0EC112928A938093969494969458
:102CC8009490000E8A6E000E8B6E000E8D6EF3ECE3
:102CD80021F006EC1FF009EC22F0F70E156E7E0EBF
:102CE800166E000E24EC15F010EC22F01EEC22F00B
:102CF800020E0001CB6F040ECA6FBA0EE82EFED783
:102D0800CA2FFCD7CB2FFAD700F064EF17F006ECE8
:102D18001DF032EC0CF064EF17F030EC12F04C6E52
:102D28002A0E4C18D8A49BEF16F09DEF16F0A1EFD1
:102D380016F0000E4B6E000E4A6E81B0A6EF16F02C
:102D4800A8EF16F0BFEF16F080BAADEF16F0AFEFB0
:102D580016F0BFEF16F0000E4B6E020E4A6E080E0C
:102D68000001CB6F1B0ECA6F270EE82EFED7CA2FA5
:102D7800FCD7CB2FFAD780BAC4EF16F0C6EF16F0FF
:102D8800D0EF16F0100E146E010E7BEC1DF0000E45
:102D980094EC21F0DBEF16F0100E146E010E7BECB4
:102DA8001DF00E0E156E7F0E166E46EC1FF04A04CF
:102DB8004B10D8B4E2EF16F0E4EF16F091EF16F0EE
:102DC80064EF17F0C2EC13F006EC1FF05AEF17F09F
:102DD80080BAF1EF16F0F3EF16F013EF17F0100EBC
:102DE800146E010E7BEC1DF0000E94EC21F0010E28
:102DF800146E010E7BEC1DF0830E156E7F0E166EA1
:102E080046EC1FF00C0E146E020E7BEC1DF0E70E64
:102E1800156E7F0E166E46EC1FF04DEF17F0100E74
:102E2800146E020E7BEC1DF00E0E156E7F0E166EE4
:102E380046EC1FF0010E146E010E7BEC1DF0FF0E28
:102E4800156E7E0E166E46EC1FF00C0E146E020EFA
:102E58007BEC1DF0E70E156E7F0E166E46EC1FF02C
:102E6800050E0001CB6F0F0ECA6FF10EE82EFED7CC
:102E7800CA2FFCD7CB2FFAD780BA45EF17F047EF08
:102E880017F04DEF17F0000E4B6E020E4A6E64EF0E
:102E980017F081B052EF17F054EF17F05AEF17F010
:102EA800000E4B6E000E4A6E64EF17F0020E4A18C1
:102EB8004B10D8B462EF17F064EF17F0ECEF16F090
:102EC8004AC0CAF04BC0CBF00001CB51000AD8B4BD
:102ED80070EF17F064EF17F0CA51000AD8B48BEFFF
:102EE80016F0010AD8B4DBEF16F0030AD8B4E6EFFF
:102EF80016F064EF17F007EF00F0CCC06CF0CDC00F
:102F08006DF0CEC06EF0CFC06FF038C06CF039C035
:102F18006DF03AC06EF03BC06FF0810E0001606F3B
:102F2800FF0E616F6CC062F06DC063F06EC064F03C
:102F38006FC065F0180EA6EF17F0D89065336433AC
:102F480063336233E82EA1EF17F0625160256A6F90
:102F5800000E61216B6F6BBFBBEF17F06B5109E17E
:102F6800170E6A5DD8A0BBEF17F0BDEF17F0C7EFDB
:102F780017F038C038F039C039F03AC03AF03BC0E1
:102F88003BF08BEF18F06BBFCCEF17F0CEEF17F0DC
:102F98003FEF18F06AC060F0FF0E616FFF0E626FBE
:102FA8007F0E636F000E646F6067DDEF17F0E5EF6B
:102FB80017F064356433633362336133602FD8EFBD
:102FC80017F061C066F062C067F063C068F064C063
:102FD80069F0000166516C15606F67516D15616F7E
:102FE80068516E15626F69516F15636F6051611199
:102FF80062116311D8A403EF18F005EF18F007EF7A
:1030080018F0BDEF17F06CC060F06DC061F06EC0D5
:1030180062F06FC063F0200E17EF18F0D89063339A
:10302800623361336033E82E12EF18F0605161119A
:1030380062116311D8B423EF18F025EF18F02DEFC3
:1030480018F066516C2767516D2368516E236951DA
:103058006F23661D606F671D616F681D626F691D54
:10306800636F60516C1761516D1762516E17635130
:103078006F1783EF18F06CC060F06DC061F06EC020
:1030880062F06FC063F0200E4FEF18F0D8906333F2
:10309800623361336033E82E4AEF18F060516111F2
:1030A80062116311D8A45BEF18F05DEF18F067EFB9
:1030B80018F0000E6C6F000E6D6F000E6E6F000E34
:1030C8006F6F83EF18F0D8906C35606F6D35616F56
:1030D8006E35626F6F35636F6051611162116311F4
:1030E800D8B479EF18F07BEF18F083EF18F0000EE2
:1030F8006C6F000E6D6F800E6E6FBF0E6F6F6CC0C1
:1031080038F06DC039F06EC03AF06FC03BF0120075
:103118000001DFBF92EF18F094EF18F095EF18F068
:10312800E093DFBFA2EF18F0DF5106E1DE05D8B06B
:10313800A0EF18F0A2EF18F0A8EF18F0000E616FDA
:10314800010E606FACEF18F0DEC060F0DFC061F018
:10315800DCC062F0DDC063F02EC064F02FC065F003
:1031680030C066F031C067F032C068F033C069F033
:1031780034C06AF035C06BF0000E6D6F4F0E6C6F87
:10318800000E01014F6F40EF19F06C07D8A06D07D2
:10319800000E6C25D96E010E6D21DA6E64C011F037
:1031A80065C012F066C013F067C014F068C015F06F
:1031B80069C016F06AC017F06BC018F00A0E196ED5
:1031C800000E1A6E000E1B6E000E1C6E000E1D6E99
:1031D800000E1E6E000E1F6E000E206EE4EC1DF039
:1031E80011C036F012C037F013C038F014C039F0EF
:1031F80015C03AF016C03BF017C03CF018C03DF0BF
:103208003650300FDF6E00016007D8A061076207F3
:10321800D8A0630764C011F065C012F066C013F04F
:1032280067C014F068C015F069C016F06AC017F0DE
:103238006BC018F00A0E196E000E1A6E000E1B6E87
:10324800000E1C6E000E1D6E000E1E6E000E1F6E10
:10325800000E206E8EEC1CF011C064F012C065F0F8
:1032680013C066F014C067F015C068F016C069F0A6
:1032780017C06AF018C06BF000016C516D11D8B41A
:1032880048EF19F04AEF19F07AEF19F06451651117
:1032980066116711681169116A116B11D8A457EF8B
:1032A80019F059EF19F0C9EF18F061BF66EF19F07E
:1032B800615106E16005D8B064EF19F066EF19F0C6
:1032C800C9EF18F063BF71EF19F0635108E16205A7
:1032D800D8A071EF19F073EF19F07AEF19F0E0B395
:1032E80078EF19F07AEF19F0C9EF18F02CC021F037
:1032F8002DC022F0000E6C25236E010E6D21246E68
:1033080062C025F063C026F085EC1FF01200196E2C
:103318001950D8B492EF19F094EF19F0B6EF19F0EC
:1033280014BE9BEF19F099EF19F0B6EF19F011C020
:1033380015F012C016F013C017F014C018F0151EBF
:10334800161E171E181E152A000E162217221822DE
:1033580015C01BF016C01CF017C01DF018C01EF0D9
:10336800BEEF19F011C01BF012C01CF013C01DF005
:1033780014C01EF01150121013101410D8A4C7EF67
:1033880019F0C9EF19F0D3EF19F0000E116E000E05
:10339800126E000E136E000E146E64EF1AF0960E85
:1033A8001A6EDDEF19F01A2AD8901E321D321C321F
:1033B8001B32000E1B14156E000E1C14166E000E28
:1033C8001D14176EFE0E1E14186E155016101710C9
:1033D8001810D8A4F2EF19F0F4EF19F0D7EF19F09C
:1033E80002EF1AF01A2A010E1B26000E1C221D22BB
:1033F8001E22D8901E321D321C321B32000E1B14A6
:10340800156E000E1C14166E000E1D14176EFF0E9E
:103418001E14186E1550161017101810D8A417EF90
:103428001AF019EF1AF0F6EF19F021EF1AF01A0650
:10343800D8901B361C361D361E361DBE26EF1AF0D8
:1034480028EF1AF030EF1AF0020E1A602EEF1AF079
:1034580030EF1AF01BEF1AF01AB035EF1AF037EF09
:103468001AF038EF1AF01D9ED8901A321AC015F0CB
:10347800166A176A186A15C018F0176A166A156A64
:1034880015501B1216501C1217501D1218501E12E0
:103498001950D8B452EF1AF054EF1AF05CEF1AF042
:1034A80014BE5BEF1AF059EF1AF05CEF1AF01E8E9B
:1034B8001BC011F01CC012F01DC013F01EC014F088
:1034C8001200000E1F6E000E1E6E000E1D6E000E06
:1034D8001C6E71EF1AF0174A182A17C0F6FF18C0A9
:1034E800F7FF0800F550200AD8B47DEF1AF07FEFF7
:1034F8001AF06FEF1AF017C0F6FF18C0F7FF0800B0
:10350800F5CF19F0F70E19241A6E1B6AFF0E1B224D
:103518001B5009E1050E1A5CD8A095EF1AF097EF39
:103528001AF06FEF1AF0A1EF1AF0000E1D6E010EDF
:103538001C6E174A182AD6EF1AF017C0F6FF18C0E3
:10354800F7FF0800F550196E1A6A1A50000AD8B425
:10355800B0EF1AF0D6EF1AF019502B0AD8B49DEF35
:103568001AF0060AD8B499EF1AF0D6EF1AF01EC06E
:1035780011F01FC012F0000E146E0A0E136EC6EC86
:1035880021F017C0F6FF18C0F7FF0800F550115ECC
:10359800000E125A300E11241E6E000E12201F6EDD
:1035A8009DEF1AF017C0F6FF18C0F7FF0800F5CF17
:1035B80019F0D00E19241A6E1B6AFF0E1B221B501D
:1035C80009E10A0E1A5CD8A0ECEF1AF0EEEF1AF037
:1035D800BBEF1AF01C501D10D8A4F5EF1AF0F7EF46
:1035E8001AF005EF1BF01EC019F01FC01AF0191EC3
:1035F8001A1E194A1A2A19C017F01AC018F009EF2A
:103608001BF01EC017F01FC018F01200133414343A
:103618001A6E1A50D8A413EF1BF015EF1BF01FEF0A
:103628001BF0000E116E000E126E000E136E000ECF
:10363800146E8CEF1BF011C015F012C016F013C0F9
:1036480017F014C018F0200E2FEF1BF0D890183286
:10365800173216321532E82E2AEF1BF01550196E64
:10366800138EFF0E1116FF0E1216FF0E1316000E04
:103678001416960E1A5E1ABE46EF1BF044EF1BF0A6
:103688005CEF1BF01A50800A970FD8B04EEF1BF072
:1036980050EF1BF052EF1BF015EF1BF0D8901432CF
:1036A8001332123211321A3E52EF1BF074EF1BF034
:1036B8001F0E1A6462EF1BF064EF1BF06CEF1BF037
:1036C80015EF1BF0D89011361236133614361A0639
:1036D8001A50D8A472EF1BF074EF1BF066EF1BF0C2
:1036E8001950D8B47AEF1BF07CEF1BF084EF1BF075
:1036F800141E131E121E116C000E12221322142205
:1037080011C011F012C012F013C013F014C014F05D
:103718001200000E2A14326E000E2B14336E800E27
:103728002C14346E7F0E2D14356E32503310341035
:103738003510D8A4A2EF1BF0A4EF1BF0ACEF1BF0E0
:10374800000E2A6E000E2B6E000E2C6E000E2D6ED3
:10375800000E2E14326E000E2F14336E800E3014AD
:10376800346E7F0E3114356E3250331034103510EC
:10377800D8A4C1EF1BF0C3EF1BF0CBEF1BF0000E7A
:103788002E6E000E2F6E000E306E000E316E2DAEB6
:10379800D0EF1BF0D2EF1BF0DBEF1BF02A6C2B1ED7
:1037A800D8B02B2A2C1ED8B02C2A800E2D5631AE1C
:1037B800E0EF1BF0E2EF1BF0EBEF1BF02E6C2F1E7F
:1037C800D8B02F2A301ED8B0302A800E3156000EBD
:1037D8002A1A000E2B1A000E2C1A800E2D1A000E13
:1037E8002E1A000E2F1A000E301A800E311A2E5083
:1037F8002A5C2F502B5830502C5831502D58D8B0A7
:1038080008EF1CF00AEF1CF00DEF1CF0D8900EEF3B
:103818001CF0D8801200D0C01BF0D1C01CF0D2C060
:103828001DF0D3C01EF011C01BF012C01CF013C055
:103838001DF014C01EF01BC015F01CC016F01DC0F2
:1038480017F01EC018F0180E2FEF1CF0D890183281
:10385800173216321532E82E2AEF1CF01550196E61
:103868001A6A19501A10D8A43CEF1CF03EEF1CF04D
:103878005EEF1CF0D8901B34156E1C34166E1D3488
:10388800176E1E34186E1550161017101810D8A47D
:1038980050EF1CF052EF1CF058EF1CF0000E126EA7
:1038A800020E116E8DEF1CF0000E126E030E116EDB
:1038B8008DEF1CF019281A10D8A465EF1CF067EFDB
:1038C8001CF089EF1CF01BC015F01CC016F01DC0C1
:1038D80017F01EC018F0090ED89015361636173690
:1038E8001836E82E70EF1CF0155016101710181027
:1038F800D8B481EF1CF084EF1CF0010E85EF1CF0AA
:10390800000E116E126A8DEF1CF0000E126E040E7E
:10391800116E120020EE21F0070EDE6AE806FDE2C5
:1039280019501A101B101C101D101E101F102010EB
:10393800D8B4A1EF1CF0A3EF1CF0F5EF1CF0010EBA
:10394800296EB1EF1CF0D89019361A361B361C3682
:103958001D361E361F362036292A20AEB6EF1CF03B
:10396800B8EF1CF0A7EF1CF0D8902136223623368A
:10397800243625362636273628361950115C1A5033
:1039880012581B5013581C5014581D5015581E50CF
:1039980016581F50175820501858D8A0D6EF1CF0AA
:1039A800D8EF1CF0E9EF1CF01950115E1A50125AAA
:1039B8001B50135A1C50145A1D50155A1E50165A93
:1039C8001F50175A2050185A2180D89020321F3281
:1039D8001E321D321C321B321A321932292EB8EF10
:1039E8001CF021C011F022C012F023C013F024C033
:1039F80014F025C015F026C016F027C017F028C00F
:103A080018F012001EEC22F0040E146E010E7BEC6E
:103A18001DF0000E1C6E000E1B6ED00E196ECA0E25
:103A2800E82EFED7192EFCD7EB0E1B24D96E000EFC
:103A38001C20DA6EDF5094EC21F01B4A1C2A1CBEB5
:103A48002FEF1DF01C5009E10B0E1B5CD8A02FEFC7
:103A58001DF031EF1DF011EF1DF0060E146E020E71
:103A68007BEC1DF0000E1E6E000E1D6ED00E196E42
:103A7800CA0EE82EFED7192EFCD7F60E1D24D96ED5
:103A8800000E1E20DA6EDF5094EC21F01D4A1E2A2B
:103A98001EBE58EF1DF01E5009E1050E1D5CD8A092
:103AA80058EF1DF05AEF1DF03AEF1DF08B80820E93
:103AB800196EDE0EE82EFED7192EFCD78B90020E5B
:103AC8001A6E040E196EBA0EE82EFED7192EFCD700
:103AD8001A2EFAD700D08B80820E196EDE0EE82ED1
:103AE800FED7192EFCD78B901EEC22F01200156E13
:103AF8001504D8A482EF1DF084EF1DF095EF1DF09A
:103B080014507F0F186E18380F0B166E18500F0BC5
:103B1800176E1650D9EC21F01750D9EC21F0E3EFCD
:103B28001DF0020E1518D8A49CEF1DF09EEF1DF095
:103B3800AFEF1DF01450BF0F186E18380F0B166E2C
:103B480018500F0B176E1650D9EC21F01750D9ECFE
:103B580021F0E3EF1DF0030E1518D8A4B6EF1DF001
:103B6800B8EF1DF0C9EF1DF01450930F186E1838F8
:103B78000F0B166E18500F0B176E1650D9EC21F05C
:103B88001750D9EC21F0E3EF1DF0040E1518D8A456
:103B9800D0EF1DF0D2EF1DF0E3EF1DF01450D30F5E
:103BA800186E18380F0B166E18500F0B176E16502C
:103BB800D9EC21F01750D9EC21F0E3EF1DF01200F9
:103BC80019501A101B101C101D101E101F10201049
:103BD800D8B4F1EF1DF0F3EF1DF03BEF1EF0010E2E
:103BE800216E01EF1EF0D89019361A361B361C3696
:103BF8001D361E361F362036212A20AE06EF1EF04F
:103C080008EF1EF0F7EF1DF01950115C1A5012580A
:103C18001B5013581C5014581D5015581E50165838
:103C28001F50175820501858D8A01DEF1EF01FEF2E
:103C38001EF02FEF1EF01950115E1A50125A1B5029
:103C4800135A1C50145A1D50155A1E50165A1F50FC
:103C5800175A2050185AD89020321F321E321D325F
:103C68001C321B321A321932212E08EF1EF011C0F5
:103C780011F012C012F013C013F014C014F015C0E4
:103C880015F016C016F017C017F018C018F012007B
:103C980013501410D8B453EF1EF055EF1EF05EEF1A
:103CA8001EF013501410D8A45CEF1EF05EEF1EF047
:103CB80063EF1EF0115025EC22F0B0EF1EF020EE5D
:103CC80009F01350D9261450DA22DE50DE10D8B489
:103CD80070EF1EF072EF1EF08DEF1EF020EE09F06F
:103CE8001350D9261450DA2210EE03F01350E126AF
:103CF8001450E222DE50E65CE650800A196EDE506F
:103D0800800A1958D8B08BEF1EF08DEF1EF0B0EF77
:103D18001EF020EE03F01350D9261450DA22DECF1D
:103D280015F0DDCF16F013C0D9FF14C0DAFFDECFCF
:103D380017F0DDCF18F015501724D96E165018203B
:103D4800DA6E11C0DFFF20EE03F01350D9261450AD
:103D5800DA22DE2A000EDD221200000E1114196E7E
:103D6800000E12141A6E800E13141B6E7F0E14149C
:103D78001C6E19501A101B101C10D8A4C6EF1EF088
:103D8800C8EF1EF0D0EF1EF0000E116E000E126E7E
:103D9800000E136E000E146E000E1514196E000E30
:103DA80016141A6E800E17141B6E7F0E18141C6ED4
:103DB80019501A101B101C10D8A4E5EF1EF0E7EFDD
:103DC8001EF0EFEF1EF0000E156E000E166E000EC0
:103DD800176E000E186E155011180FE116501218B4
:103DE8000CE11750131809E118501418D8B4FFEF54
:103DF8001EF001EF1FF004EF1FF0D89005EF1FF041
:103E0800D8801200929092929398939A939C939E42
:103E1800000EF5EC1FF0340E146EF20EE82EFED7ED
:103E2800142EFCD7030ED9EC21F00D0E146EFC0EE7
:103E3800E82EFED7142EFCD7030ED9EC21F01D0E68
:103E4800146E910EE82EFED7142EFCD700F0030E48
:103E5800D9EC21F0020ED9EC21F0020ED9EC21F0B8
:103E6800080ED9EC21F0000ED9EC21F00C0ED9EC9B
:103E780021F0000ED9EC21F0060ED9EC21F01EEC51
:103E880022F01200000E1A6E000E196E66EF1FF077
:103E980019501524176E1A501620186E17C0F6FF01
:103EA80018C0F7FFF86A070EF76403D00800F5504A
:103EB80005D0F6CFE1FFF7CFE2FFE75094EC21F011
:103EC800194A1A2A19501524176E1A501620186EF6
:103ED80017C0F6FF18C0F7FFF86A070EF76403D09B
:103EE8000800F55005D0F6CFE1FFF7CFE2FFE75025
:103EF8000009D8A482EF1FF084EF1FF04CEF1FF0E9
:103F0800120026BE8AEF1FF08CEF1FF092EF1FF011
:103F180025C02AF026C02BF096EF1FF0000E2B6E5E
:103F2800000E2A6E000E296E000E286EA8EF1FF0F4
:103F3800000E126E200E116E21C013F022C014F074
:103F48004CEC1EF0284A292A2A50285C2950800A5D
:103F5800276E2B50800A2758D8A0B5EF1FF0B7EF6F
:103F68001FF09CEF1FF023C01AF024C01BF021C0E3
:103F78001CF022C01DF036EC21F0120014BED1EF67
:103F88001FF014501310121006E11104D8B0CFEF2F
:103F98001FF0D1EF1FF0ECEF1FF011C015F012C0A9
:103FA80016F013C017F014C018F0151E161E171EB1
:103FB800181E152A000E16221722182215C011F0F5
:103FC80016C012F017C013F018C014F0F4EF1FF069
:103FD80011C011F012C012F013C013F014C014F085
:103FE8001200116E11A0FBEF1FF0FDEF1FF000EFA4
:103FF80020F08A8801EF20F08A9811A206EF20F0BD
:1040080008EF20F00BEF20F08A8A0CEF20F08A9A54
:1040180011A411EF20F013EF20F016EF20F08A8C96
:1040280017EF20F08A9C11A61CEF20F01EEF20F05D
:1040380021EF20F08A8E22EF20F08A9E1200C40E13
:104048000101506F000E516FC0C052F1C1C053F151
:10405800000E566F000E556F000E5C6F000E5B6F02
:10406800520E0001BA6F010EBB6FC2C0BCF0C3C0D4
:10407800BDF0500EBE6F010EBF6F79EC20F001014C
:1040880055510001C025D96E010156510001C121C9
:10409800DA6E000EDF6E1200D20EF66E430EF76E69
:1040A800000EF86E00EEEBF010EE14F00900F5CFFC
:1040B800EEFFE550E150FAE101EE00F0500EEE6A35
:1040C800E806FDE100EECCF01F0EEE6AE806FDE121
:1040D80000EE40F00F0EEE6AE806FDE14F904F92B9
:1040E800000EF86E000157EF16F0BCC03EF0BDC0E0
:1040F8003FF08EEF20F0BAC0A3F0BBC0A4F03E0E94
:104108000001A56F000EA66FBEC0A7F0BFC0A8F043
:10411800FBEC09F03EC0F6FF3FC0F7FF0800F55082
:104128000009D8A49AEF20F09CEF20F07FEF20F050
:10413800000E0001BB6F000EBA6F120013C01AF018
:1041480014C01BF011C018F012C019F0BCEF20F019
:104158001AC0D9FF1BC0DAFFDF50176E1A4A1B2A94
:1041680018C0D9FF19C0DAFF17C0DFFF184A192A8B
:104178001506D8A01606152806E11628D8A4C7EFF4
:1041880020F0C9EF20F0ACEF20F012000600F2A4F6
:10419800D0EF20F0D2EF20F0EEEF20F040C001F099
:1041A80041C002F042C003F043C004F0000E056EA7
:1041B800000E066E800E076E3F0E086E9BEC07F031
:1041C80001C040F002C041F003C042F004C043F017
:1041D800D668F2944F921100000E2E1A000E2F1A74
:1041E800000E301A800E311A2AC011F02BC012F0BE
:1041F8002CC013F02DC014F02EC015F02FC016F0EF
:1042080030C017F031C018F03BEC05F011C02AF0AF
:1042180012C02BF013C02CF014C02DF01200010EA8
:10422800156E200E11181210D8B41DEF21F01FEFD3
:1042380021F032EF21F0F70E1124136EFF0E122039
:10424800146E145009E1050E135CD8A02EEF21F06E
:1042580030EF21F032EF21F0000E156E15C011F08D
:10426800126A1200000E206E000E1F6E47EF21F03A
:104278001EC011F0126A1CC013F01DC014F04CECE3
:104288001EF01F4A202A1F501A24D96E20501B20C6
:10429800DA6EDF501E6E1E50D8A455EF21F057EF8E
:1042A80021F03CEF21F0120013C015F014C016F0F5
:1042B80011C017F012C018F015C0F6FF16C0F7FFAE
:1042C800154A162A17C0D9FF18C0DAFF174A182A44
:1042D8000800F5CFDFFFDF50D8A475EF21F077EFA6
:1042E80021F060EF21F01200115012101310141079
:1042F800D8B481EF21F083EF21F08BEF21F0000E8D
:10430800111A000E121A000E131A800E141A11C078
:1043180011F012C012F013C013F014C014F0120000
:10432800146E14500F0B126E1450F00B136E89801C
:1043380013380F0BF5EC1FF089821A0EE82EFED702
:1043480000D089921250F5EC1FF089821A0EE82EDF
:10435800FED700D089921200D00E1124136EFF0EE2
:104368001220146E14500AE10A0E135CD8A0BFEF95
:1043780021F0C2EF21F0010EC3EF21F0000E116E03
:10438800126A120011501302F3CF15F0F4CF16F091
:1043980011501402F350162612501302F350162629
:1043A80015C011F016C012F01200136E8990135048
:1043B800F5EC1FF089820B0E126E620EE82EFED706
:1043C800122EFCD700D08992120058313037383974
:1043D80020305835354E4E484D4E8DB05C40959E38
:1043E800959C959A95989586958495821200000ECD
:1043F800D9EC21F00C0ED9EC21F01200000ED9EC0A
:1044080021F00F0ED9EC21F01200040ED9EC21F0A6
:10441800000ED9EC21F01200000ED9EC21F0020EAA
:10442800D9EC21F01200D58CD58AD586D588D668E6
:10443800D58E1200000ED9EC21F0010ED9EC21F036
:04444800120012004C
:107EF60000040E0400040E0400506F6E67612075C6
:107F06006E20656E76617365200020204E6F2065B9
:107F16006E636F6E747261646F20004C696D706978
:107F260061723A2020496E6963696F004D616E7413
:107F3600656E676120696E6963696172005065727A
:107F4600662E30353D203130306D6C20004C6C652E
:107F56006E616E646F20202020206D6C005065726B
:107F6600662E30323D20313030306D6C00506572F7
:107F7600662E30313D20313530306D6C00526574DF
:107F86006972617220656E7661736500506572660E
:107F96002E30333D203530306D6C00506572662EC4
:107FA60030343D203235306D6C004C696D7069613E
:107FB6006E646F2E2E0050657266696C3A2023300F
:107FC600300020202020206D6C20004174726173E7
:107FD600202A00496E69636961720025302E316678
:107FE6000050617261720053616C697200696E665D
:097FF600006E616E0025750000AB
:020000040020DA
:08000000FFFFFFFFFFFFFFFF00
:020000040030CA
:0E000000000B181EFF8381FF0FC00FE00F40A2
:00000001FF
